{
  "contractName": "BakeryMaster",
  "abi": [
    {
      "inputs": [
        {
          "internalType": "contract BakeryToken",
          "name": "_bake",
          "type": "address"
        },
        {
          "internalType": "address",
          "name": "_devAddr",
          "type": "address"
        },
        {
          "internalType": "uint256",
          "name": "_bakeStartBlock",
          "type": "uint256"
        },
        {
          "internalType": "uint256",
          "name": "_startBlock",
          "type": "uint256"
        },
        {
          "internalType": "uint256",
          "name": "_bonusEndBlock",
          "type": "uint256"
        },
        {
          "internalType": "uint256",
          "name": "_bonusBeforeBulkBlockSize",
          "type": "uint256"
        },
        {
          "internalType": "uint256",
          "name": "_bonusBeforeCommonDifference",
          "type": "uint256"
        },
        {
          "internalType": "uint256",
          "name": "_bonusEndCommonDifference",
          "type": "uint256"
        }
      ],
      "stateMutability": "nonpayable",
      "type": "constructor"
    },
    {
      "anonymous": false,
      "inputs": [
        {
          "indexed": true,
          "internalType": "address",
          "name": "user",
          "type": "address"
        },
        {
          "indexed": true,
          "internalType": "address",
          "name": "poolAddress",
          "type": "address"
        },
        {
          "indexed": false,
          "internalType": "uint256",
          "name": "amount",
          "type": "uint256"
        }
      ],
      "name": "Deposit",
      "type": "event"
    },
    {
      "anonymous": false,
      "inputs": [
        {
          "indexed": true,
          "internalType": "address",
          "name": "user",
          "type": "address"
        },
        {
          "indexed": true,
          "internalType": "address",
          "name": "poolAddress",
          "type": "address"
        },
        {
          "indexed": false,
          "internalType": "uint256",
          "name": "amount",
          "type": "uint256"
        }
      ],
      "name": "EmergencyWithdraw",
      "type": "event"
    },
    {
      "anonymous": false,
      "inputs": [
        {
          "indexed": true,
          "internalType": "address",
          "name": "previousOwner",
          "type": "address"
        },
        {
          "indexed": true,
          "internalType": "address",
          "name": "newOwner",
          "type": "address"
        }
      ],
      "name": "OwnershipTransferred",
      "type": "event"
    },
    {
      "anonymous": false,
      "inputs": [
        {
          "indexed": true,
          "internalType": "address",
          "name": "user",
          "type": "address"
        },
        {
          "indexed": true,
          "internalType": "address",
          "name": "poolAddress",
          "type": "address"
        },
        {
          "indexed": false,
          "internalType": "uint256",
          "name": "amount",
          "type": "uint256"
        }
      ],
      "name": "Withdraw",
      "type": "event"
    },
    {
      "inputs": [],
      "name": "accBakePerShareMultiple",
      "outputs": [
        {
          "internalType": "uint256",
          "name": "",
          "type": "uint256"
        }
      ],
      "stateMutability": "view",
      "type": "function"
    },
    {
      "inputs": [],
      "name": "bake",
      "outputs": [
        {
          "internalType": "contract BakeryToken",
          "name": "",
          "type": "address"
        }
      ],
      "stateMutability": "view",
      "type": "function"
    },
    {
      "inputs": [],
      "name": "bakeBonusEndBlock",
      "outputs": [
        {
          "internalType": "uint256",
          "name": "",
          "type": "uint256"
        }
      ],
      "stateMutability": "view",
      "type": "function"
    },
    {
      "inputs": [],
      "name": "bakeStartBlock",
      "outputs": [
        {
          "internalType": "uint256",
          "name": "",
          "type": "uint256"
        }
      ],
      "stateMutability": "view",
      "type": "function"
    },
    {
      "inputs": [],
      "name": "bonusBeforeBulkBlockSize",
      "outputs": [
        {
          "internalType": "uint256",
          "name": "",
          "type": "uint256"
        }
      ],
      "stateMutability": "view",
      "type": "function"
    },
    {
      "inputs": [],
      "name": "bonusBeforeCommonDifference",
      "outputs": [
        {
          "internalType": "uint256",
          "name": "",
          "type": "uint256"
        }
      ],
      "stateMutability": "view",
      "type": "function"
    },
    {
      "inputs": [],
      "name": "bonusEndBlock",
      "outputs": [
        {
          "internalType": "uint256",
          "name": "",
          "type": "uint256"
        }
      ],
      "stateMutability": "view",
      "type": "function"
    },
    {
      "inputs": [],
      "name": "bonusEndBulkBlockSize",
      "outputs": [
        {
          "internalType": "uint256",
          "name": "",
          "type": "uint256"
        }
      ],
      "stateMutability": "view",
      "type": "function"
    },
    {
      "inputs": [],
      "name": "bonusEndCommonDifference",
      "outputs": [
        {
          "internalType": "uint256",
          "name": "",
          "type": "uint256"
        }
      ],
      "stateMutability": "view",
      "type": "function"
    },
    {
      "inputs": [],
      "name": "devAddr",
      "outputs": [
        {
          "internalType": "address",
          "name": "",
          "type": "address"
        }
      ],
      "stateMutability": "view",
      "type": "function"
    },
    {
      "inputs": [],
      "name": "maxRewardBlockNumber",
      "outputs": [
        {
          "internalType": "uint256",
          "name": "",
          "type": "uint256"
        }
      ],
      "stateMutability": "view",
      "type": "function"
    },
    {
      "inputs": [],
      "name": "owner",
      "outputs": [
        {
          "internalType": "address",
          "name": "",
          "type": "address"
        }
      ],
      "stateMutability": "view",
      "type": "function"
    },
    {
      "inputs": [
        {
          "internalType": "uint256",
          "name": "",
          "type": "uint256"
        }
      ],
      "name": "poolAddresses",
      "outputs": [
        {
          "internalType": "address",
          "name": "",
          "type": "address"
        }
      ],
      "stateMutability": "view",
      "type": "function"
    },
    {
      "inputs": [
        {
          "internalType": "address",
          "name": "",
          "type": "address"
        }
      ],
      "name": "poolInfoMap",
      "outputs": [
        {
          "internalType": "uint256",
          "name": "allocPoint",
          "type": "uint256"
        },
        {
          "internalType": "uint256",
          "name": "lastRewardBlock",
          "type": "uint256"
        },
        {
          "internalType": "uint256",
          "name": "accBakePerShare",
          "type": "uint256"
        },
        {
          "internalType": "bool",
          "name": "exists",
          "type": "bool"
        }
      ],
      "stateMutability": "view",
      "type": "function"
    },
    {
      "inputs": [
        {
          "internalType": "address",
          "name": "",
          "type": "address"
        },
        {
          "internalType": "address",
          "name": "",
          "type": "address"
        }
      ],
      "name": "poolUserInfoMap",
      "outputs": [
        {
          "internalType": "uint256",
          "name": "amount",
          "type": "uint256"
        },
        {
          "internalType": "uint256",
          "name": "rewardDebt",
          "type": "uint256"
        }
      ],
      "stateMutability": "view",
      "type": "function"
    },
    {
      "inputs": [],
      "name": "renounceOwnership",
      "outputs": [],
      "stateMutability": "nonpayable",
      "type": "function"
    },
    {
      "inputs": [],
      "name": "startBlock",
      "outputs": [
        {
          "internalType": "uint256",
          "name": "",
          "type": "uint256"
        }
      ],
      "stateMutability": "view",
      "type": "function"
    },
    {
      "inputs": [],
      "name": "totalAllocPoint",
      "outputs": [
        {
          "internalType": "uint256",
          "name": "",
          "type": "uint256"
        }
      ],
      "stateMutability": "view",
      "type": "function"
    },
    {
      "inputs": [
        {
          "internalType": "address",
          "name": "newOwner",
          "type": "address"
        }
      ],
      "name": "transferOwnership",
      "outputs": [],
      "stateMutability": "nonpayable",
      "type": "function"
    },
    {
      "inputs": [],
      "name": "poolLength",
      "outputs": [
        {
          "internalType": "uint256",
          "name": "",
          "type": "uint256"
        }
      ],
      "stateMutability": "view",
      "type": "function"
    },
    {
      "inputs": [
        {
          "internalType": "uint256",
          "name": "_allocPoint",
          "type": "uint256"
        },
        {
          "internalType": "address",
          "name": "_pair",
          "type": "address"
        },
        {
          "internalType": "bool",
          "name": "_withUpdate",
          "type": "bool"
        }
      ],
      "name": "add",
      "outputs": [],
      "stateMutability": "nonpayable",
      "type": "function"
    },
    {
      "inputs": [
        {
          "internalType": "address",
          "name": "_pair",
          "type": "address"
        },
        {
          "internalType": "uint256",
          "name": "_allocPoint",
          "type": "uint256"
        },
        {
          "internalType": "bool",
          "name": "_withUpdate",
          "type": "bool"
        }
      ],
      "name": "set",
      "outputs": [],
      "stateMutability": "nonpayable",
      "type": "function"
    },
    {
      "inputs": [
        {
          "internalType": "address",
          "name": "_pair",
          "type": "address"
        }
      ],
      "name": "existsPool",
      "outputs": [
        {
          "internalType": "bool",
          "name": "",
          "type": "bool"
        }
      ],
      "stateMutability": "view",
      "type": "function"
    },
    {
      "inputs": [
        {
          "internalType": "uint256",
          "name": "_from",
          "type": "uint256"
        },
        {
          "internalType": "uint256",
          "name": "_to",
          "type": "uint256"
        },
        {
          "internalType": "uint256",
          "name": "_bakeInitBlock",
          "type": "uint256"
        },
        {
          "internalType": "uint256",
          "name": "_bulkBlockSize",
          "type": "uint256"
        },
        {
          "internalType": "uint256",
          "name": "_commonDifference",
          "type": "uint256"
        }
      ],
      "name": "getTotalRewardInfoInSameCommonDifference",
      "outputs": [
        {
          "internalType": "uint256",
          "name": "totalReward",
          "type": "uint256"
        }
      ],
      "stateMutability": "view",
      "type": "function"
    },
    {
      "inputs": [
        {
          "internalType": "uint256",
          "name": "_from",
          "type": "uint256"
        },
        {
          "internalType": "uint256",
          "name": "_to",
          "type": "uint256"
        }
      ],
      "name": "getTotalRewardInfo",
      "outputs": [
        {
          "internalType": "uint256",
          "name": "totalReward",
          "type": "uint256"
        }
      ],
      "stateMutability": "view",
      "type": "function"
    },
    {
      "inputs": [
        {
          "internalType": "address",
          "name": "_pair",
          "type": "address"
        },
        {
          "internalType": "address",
          "name": "_user",
          "type": "address"
        }
      ],
      "name": "pendingBake",
      "outputs": [
        {
          "internalType": "uint256",
          "name": "",
          "type": "uint256"
        }
      ],
      "stateMutability": "view",
      "type": "function"
    },
    {
      "inputs": [],
      "name": "massUpdatePools",
      "outputs": [],
      "stateMutability": "nonpayable",
      "type": "function"
    },
    {
      "inputs": [
        {
          "internalType": "address",
          "name": "_pair",
          "type": "address"
        }
      ],
      "name": "updatePool",
      "outputs": [],
      "stateMutability": "nonpayable",
      "type": "function"
    },
    {
      "inputs": [
        {
          "internalType": "address",
          "name": "_pair",
          "type": "address"
        },
        {
          "internalType": "uint256",
          "name": "_amount",
          "type": "uint256"
        }
      ],
      "name": "deposit",
      "outputs": [],
      "stateMutability": "nonpayable",
      "type": "function"
    },
    {
      "inputs": [
        {
          "internalType": "address",
          "name": "_pair",
          "type": "address"
        },
        {
          "internalType": "uint256",
          "name": "_amount",
          "type": "uint256"
        }
      ],
      "name": "withdraw",
      "outputs": [],
      "stateMutability": "nonpayable",
      "type": "function"
    },
    {
      "inputs": [
        {
          "internalType": "address",
          "name": "_pair",
          "type": "address"
        }
      ],
      "name": "emergencyWithdraw",
      "outputs": [],
      "stateMutability": "nonpayable",
      "type": "function"
    },
    {
      "inputs": [
        {
          "internalType": "address",
          "name": "_devAddr",
          "type": "address"
        }
      ],
      "name": "dev",
      "outputs": [],
      "stateMutability": "nonpayable",
      "type": "function"
    }
  ],
  "bytecode": "0x6080604052600060025564e8d4a51000600b553480156200001f57600080fd5b50604051620023513803806200235183398181016040526101008110156200004657600080fd5b508051602082015160408301516060840151608085015160a086015160c087015160e09097015195969495939492939192909160006200008e6001600160e01b036200028516565b600080546001600160a01b0319166001600160a01b0383169081178255604051929350917f8be0079c531659141344cd1fd0a4f28419497f9722a3daafe3b4186f6b6457e0908290a350600c80546001600160a01b03199081166001600160a01b038b811691909117909255600d805490911691891691909117905560018690556003859055600484905560058390556009829055600a81905562000140848662000289602090811b6200152017901c565b600681905550620001ff600654620001ac6200016f600554600654620002dc60201b620016131790919060201c565b620001d4600554620001d4620001e8600954620001d46001620001c0600554620001ac6003546004546200028960201b620015201790919060201c565b620002dc60201b620016131790919060201c565b6200028960201b620015201790919060201c565b6200032660201b620015ba1790919060201c565b6001546200028960201b620015201790919060201c565b600781905550620002736200025c62000245600162000231600a54600754620002dc60201b620016131790919060201c565b6200038460201b620015621790919060201c565b6006546200032660201b620015ba1790919060201c565b6003546200038460201b620015621790919060201c565b60085550620004e39650505050505050565b3390565b6000620002d383836040518060400160405280601e81526020017f536166654d6174683a207375627472616374696f6e206f766572666c6f770000815250620003df60201b60201c565b90505b92915050565b6000620002d383836040518060400160405280601a81526020017f536166654d6174683a206469766973696f6e206279207a65726f0000000000008152506200047a60201b60201c565b6000826200033757506000620002d6565b828202828482816200034557fe5b0414620002d35760405162461bcd60e51b8152600401808060200182810382526021815260200180620023306021913960400191505060405180910390fd5b600082820183811015620002d3576040805162461bcd60e51b815260206004820152601b60248201527f536166654d6174683a206164646974696f6e206f766572666c6f770000000000604482015290519081900360640190fd5b60008184841115620004725760405162461bcd60e51b81526004018080602001828103825283818151815260200191508051906020019080838360005b83811015620004365781810151838201526020016200041c565b50505050905090810190601f168015620004645780820380516001836020036101000a031916815260200191505b509250505060405180910390fd5b505050900390565b60008183620004cc5760405162461bcd60e51b8152602060048201818152835160248401528351909283926044909101919085019080838360008315620004365781810151838201526020016200041c565b506000838581620004d957fe5b0495945050505050565b611e3d80620004f36000396000f3fe608060405234801561001057600080fd5b50600436106101805760003560e01c8063081e3eda146101855780630b1391941461019f578063114b338b146101d55780631218c598146101dd57806317caf6f11461022b5780631aed6553146102335780631eaaa0451461023b5780632d3f7fcb1461026f578063349e2cc61461027757806334ace4171461029a57806347e7ef24146102e157806348cd4cb11461030d57806361235c7b14610315578063630b5ba11461034f5780636cc75a0c146103575780636ff1c9bc14610385578063715018a6146103ab5780637b46c54f146103b35780638d88a90e146103d95780638da5cb5b146103ff57806393190c9614610423578063a2edfe3c1461042b578063a55b920714610433578063a5f8d4e614610468578063b0de262e14610470578063c97ab21a14610478578063cedbcf2714610480578063da09c72c14610488578063ebfe436314610490578063f2fde38b14610498578063f3fef3a3146104be578063feb21b9c146104ea575b600080fd5b61018d610507565b60408051918252519081900360200190f35b6101d3600480360360608110156101b557600080fd5b506001600160a01b038135169060208101359060400135151561050d565b005b61018d610607565b610203600480360360208110156101f357600080fd5b50356001600160a01b031661060d565b6040805194855260208501939093528383019190915215156060830152519081900360800190f35b61018d610637565b61018d61063d565b6101d36004803603606081101561025157600080fd5b508035906001600160a01b0360208201351690604001351515610643565b61018d6107b4565b61018d6004803603604081101561028d57600080fd5b50803590602001356107ba565b6102c8600480360360408110156102b057600080fd5b506001600160a01b0381358116916020013516610831565b6040805192835260208301919091528051918290030190f35b6101d3600480360360408110156102f757600080fd5b506001600160a01b038135169060200135610855565b61018d61097d565b61033b6004803603602081101561032b57600080fd5b50356001600160a01b0316610983565b604080519115158252519081900360200190f35b6101d36109a4565b61018d6004803603604081101561036d57600080fd5b506001600160a01b03813581169160200135166109e8565b6101d36004803603602081101561039b57600080fd5b50356001600160a01b0316610b9d565b6101d3610c25565b6101d3600480360360208110156103c957600080fd5b50356001600160a01b0316610cb5565b6101d3600480360360208110156103ef57600080fd5b50356001600160a01b0316610f01565b610407610f6e565b604080516001600160a01b039092168252519081900360200190f35b61018d610f7d565b61018d610f83565b61018d600480360360a081101561044957600080fd5b5080359060208101359060408101359060608101359060800135610f89565b61018d611303565b610407611309565b61018d611318565b61018d61131e565b610407611324565b61018d611333565b6101d3600480360360208110156104ae57600080fd5b50356001600160a01b0316611339565b6101d3600480360360408110156104d457600080fd5b506001600160a01b03813516906020013561139a565b6104076004803603602081101561050057600080fd5b50356114f5565b600e5490565b61051561151c565b6000546001600160a01b03908116911614610565576040805162461bcd60e51b81526020600482018190526024820152600080516020611dc8833981519152604482015290519081900360640190fd5b8015610573576105736109a4565b6001600160a01b0383166000908152600f60205260409020600381015460ff166105d6576040805162461bcd60e51b815260206004820152600f60248201526e706f6f6c206e6f742065786973747360881b604482015290519081900360640190fd5b80546002546105fc9185916105f09163ffffffff61152016565b9063ffffffff61156216565b600255919091555050565b600a5481565b600f6020526000908152604090208054600182015460028301546003909301549192909160ff1684565b60025481565b60045481565b61064b61151c565b6000546001600160a01b0390811691161461069b576040805162461bcd60e51b81526020600482018190526024820152600080516020611dc8833981519152604482015290519081900360640190fd5b80156106a9576106a96109a4565b6001600160a01b0382166000908152600f60205260409020600381015460ff1615610711576040805162461bcd60e51b8152602060048201526013602482015272706f6f6c20616c72656164792065786973747360681b604482015290519081900360640190fd5b6000600354431161072457600354610726565b435b60025490915061073c908663ffffffff61156216565b600290815594825560018083019190915560009482018590556003909101805460ff191682179055600e80549182018155909352507fbb7b4a454dc3493923482f07822329ed19e8244eff582cc204f8554c3620c3fd90910180546001600160a01b0319166001600160a01b03909216919091179055565b60055481565b600060045482116107df576107d88383600154600554600954610f89565b905061082b565b60045483106107fb576107d88383600754600654600a54610f89565b61082861081360045484600754600654600a54610f89565b6105f085600454600154600554600954610f89565b90505b92915050565b60106020908152600092835260408084209091529082529020805460019091015482565b6001600160a01b0382166000908152600f602090815260408083206010835281842033855290925290912061088984610cb5565b8054156108e75760006108d382600101546108c7600b546108bb876002015487600001546115ba90919063ffffffff16565b9063ffffffff61161316565b9063ffffffff61152016565b905080156108e5576108e53382611652565b505b6109026001600160a01b03851633308663ffffffff6117e316565b8054610914908463ffffffff61156216565b808255600b546002840154610932926108bb9163ffffffff6115ba16565b60018201556040805184815290516001600160a01b0386169133917f5548c837ab068cf56a2c2479df0882a4922fd203edb7517321831d95078c5f629181900360200190a350505050565b60035481565b6001600160a01b03166000908152600f602052604090206003015460ff1690565b600e5460005b818110156109e4576109dc600e82815481106109c257fe5b6000918252602090912001546001600160a01b0316610cb5565b6001016109aa565b5050565b60006109f2611d2c565b506001600160a01b0383166000908152600f602090815260409182902082516080810184528154815260018201549281019290925260028101549282019290925260039091015460ff16151560608201819052610a5357600091505061082b565b6001600160a01b03808516600081815260106020908152604080832094881683529381528382208585015185516370a0823160e01b8152306004820152955191959094926370a0823192602480840193829003018186803b158015610ab757600080fd5b505afa158015610acb573d6000803e3d6000fd5b505050506040513d6020811015610ae157600080fd5b5051602085015190915043118015610af857508015155b8015610b0957506008548460200151105b15610b6f576000610b1e8560200151436107ba565b90506000610b3f6002546108bb8860000151856115ba90919063ffffffff16565b9050610b6a610b5d846108bb600b54856115ba90919063ffffffff16565b859063ffffffff61156216565b935050505b6001830154600b548454610b9292916108c7916108bb908763ffffffff6115ba16565b979650505050505050565b6001600160a01b038116600081815260106020908152604080832033808552925290912080549092610bd692909163ffffffff61184316565b805460408051918252516001600160a01b0384169133917ff24ef89f38eadc1bde50701ad6e4d6d11a2dc24f7cf834a486991f38833285049181900360200190a3600080825560019091015550565b610c2d61151c565b6000546001600160a01b03908116911614610c7d576040805162461bcd60e51b81526020600482018190526024820152600080516020611dc8833981519152604482015290519081900360640190fd5b600080546040516001600160a01b0390911690600080516020611de8833981519152908390a3600080546001600160a01b0319169055565b6001600160a01b0381166000908152600f60205260409020600381015460ff161580610ce5575080600101544311155b15610cf05750610efe565b604080516370a0823160e01b815230600482015290516000916001600160a01b038516916370a0823191602480820192602092909190829003018186803b158015610d3a57600080fd5b505afa158015610d4e573d6000803e3d6000fd5b505050506040513d6020811015610d6457600080fd5b5051905080610d7a575043600190910155610efe565b600854826001015410610d8e575050610efe565b6000610d9e8360010154436107ba565b90506000610dbf6002546108bb8660000154856115ba90919063ffffffff16565b600c54600d549192506001600160a01b039081169163449a52f89116610dec84606463ffffffff61161316565b6040518363ffffffff1660e01b815260040180836001600160a01b03166001600160a01b0316815260200182815260200192505050600060405180830381600087803b158015610e3b57600080fd5b505af1158015610e4f573d6000803e3d6000fd5b5050600c54604080516308934a5f60e31b81523060048201526024810186905290516001600160a01b03909216935063449a52f8925060448082019260009290919082900301818387803b158015610ea657600080fd5b505af1158015610eba573d6000803e3d6000fd5b50505050610eeb610eda846108bb600b54856115ba90919063ffffffff16565b60028601549063ffffffff61156216565b6002850155505043600190920191909155505b50565b600d546001600160a01b03163314610f4c576040805162461bcd60e51b81526020600482015260096024820152686465763a207775743f60b81b604482015290519081900360640190fd5b600d80546001600160a01b0319166001600160a01b0392909216919091179055565b6000546001600160a01b031690565b60075481565b600b5481565b6000600354851080610f9d57508560085411155b15610faa575060006112fa565b600354861015610fba5760035495505b846008541015610fca5760085494505b60006110216000610ff686610fea6003548b61152090919063ffffffff16565b9063ffffffff61189516565b11611002576000611005565b60015b60ff166105f0866108bb6003548b61152090919063ffffffff16565b90506001811015611030575060015b600061107b600061105087610fea6003548d61152090919063ffffffff16565b1161105c57600061105f565b60015b60ff166105f0876108bb6003548d61152090919063ffffffff16565b9050600181101561108a575060015b818114156110df576110d66110c66110b9866110ad86600163ffffffff61152016565b9063ffffffff6115ba16565b889063ffffffff61152016565b6110ad898b63ffffffff61152016565b925050506112fa565b60006111036110f4878463ffffffff6115ba16565b6003549063ffffffff61156216565b9050600061112b6110f461111e86600163ffffffff61152016565b899063ffffffff6115ba16565b9050898961117661115761114a8a6110ad8a600163ffffffff61152016565b8c9063ffffffff61152016565b6110ad8585116111675785611169565b845b849063ffffffff61152016565b965081841180156111875750808411155b156111e6576111e36111d66111c6600088116111a45760006111b9565b6111b98b6110ad8a600163ffffffff61152016565b8d9063ffffffff61152016565b6110ad878663ffffffff61152016565b889063ffffffff61156216565b96505b508890508787848411156112f25783600061120b846108bb848a63ffffffff61152016565b905060018111156112c157600061124861123b6110b9876108bb886110ad6003548f61152090919063ffffffff16565b869063ffffffff6115ba16565b9050600061128e611281611274876110ad60016108c78c6108bb6003548d61152090919063ffffffff16565b899063ffffffff61152016565b879063ffffffff6115ba16565b90506112b86112ab60026108bb611281868663ffffffff61156216565b8d9063ffffffff61156216565b9b5050506112ef565b6112ec6112df61123b6110b9866110ad8e600263ffffffff61152016565b8b9063ffffffff61156216565b99505b50505b505050505050505b95945050505050565b60085481565b600c546001600160a01b031681565b60095481565b60065481565b600d546001600160a01b031681565b60015481565b61134161151c565b6000546001600160a01b03908116911614611391576040805162461bcd60e51b81526020600482018190526024820152600080516020611dc8833981519152604482015290519081900360640190fd5b610efe816118d2565b6001600160a01b0382166000908152600f60209081526040808320601083528184203385529092529091208054831115611410576040805162461bcd60e51b81526020600482015260126024820152711dda5d1a191c985dce881b9bdd0819dbdbd960721b604482015290519081900360640190fd5b61141984610cb5565b600061144482600101546108c7600b546108bb876002015487600001546115ba90919063ffffffff16565b90508015611456576114563382611652565b831561148a57815461146e908563ffffffff61152016565b825561148a6001600160a01b038616338663ffffffff61184316565b600b54600284015483546114a992916108bb919063ffffffff6115ba16565b60018301556040805185815290516001600160a01b0387169133917f9b1bfa7fa9ee420a16e124f794c35ac9f90472acc99140eb2f6447c714cad8eb9181900360200190a35050505050565b600e818154811061150257fe5b6000918252602090912001546001600160a01b0316905081565b3390565b600061082883836040518060400160405280601e81526020017f536166654d6174683a207375627472616374696f6e206f766572666c6f770000815250611960565b600082820183811015610828576040805162461bcd60e51b815260206004820152601b60248201527a536166654d6174683a206164646974696f6e206f766572666c6f7760281b604482015290519081900360640190fd5b6000826115c95750600061082b565b828202828482816115d657fe5b04146108285760405162461bcd60e51b8152600401808060200182810382526021815260200180611da76021913960400191505060405180910390fd5b600061082883836040518060400160405280601a815260200179536166654d6174683a206469766973696f6e206279207a65726f60301b8152506119f7565b600c54604080516370a0823160e01b815230600482015290516000926001600160a01b0316916370a08231916024808301926020929190829003018186803b15801561169d57600080fd5b505afa1580156116b1573d6000803e3d6000fd5b505050506040513d60208110156116c757600080fd5b505190508082111561175b57600c546040805163a9059cbb60e01b81526001600160a01b038681166004830152602482018590529151919092169163a9059cbb9160448083019260209291908290030181600087803b15801561172957600080fd5b505af115801561173d573d6000803e3d6000fd5b505050506040513d602081101561175357600080fd5b506117de9050565b600c546040805163a9059cbb60e01b81526001600160a01b038681166004830152602482018690529151919092169163a9059cbb9160448083019260209291908290030181600087803b1580156117b157600080fd5b505af11580156117c5573d6000803e3d6000fd5b505050506040513d60208110156117db57600080fd5b50505b505050565b604080516001600160a01b0380861660248301528416604482015260648082018490528251808303909101815260849091019091526020810180516001600160e01b03166323b872dd60e01b17905261183d908590611a5c565b50505050565b604080516001600160a01b038416602482015260448082018490528251808303909101815260649091019091526020810180516001600160e01b031663a9059cbb60e01b1790526117de908490611a5c565b6000610828838360405180604001604052806018815260200177536166654d6174683a206d6f64756c6f206279207a65726f60401b815250611b0d565b6001600160a01b0381166119175760405162461bcd60e51b8152600401808060200182810382526026815260200180611d816026913960400191505060405180910390fd5b600080546040516001600160a01b0380851693921691600080516020611de883398151915291a3600080546001600160a01b0319166001600160a01b0392909216919091179055565b600081848411156119ef5760405162461bcd60e51b81526004018080602001828103825283818151815260200191508051906020019080838360005b838110156119b457818101518382015260200161199c565b50505050905090810190601f1680156119e15780820380516001836020036101000a031916815260200191505b509250505060405180910390fd5b505050900390565b60008183611a465760405162461bcd60e51b81526020600482018181528351602484015283519092839260449091019190850190808383600083156119b457818101518382015260200161199c565b506000838581611a5257fe5b0495945050505050565b6060611ab1826040518060400160405280602081526020017f5361666542455032303a206c6f772d6c6576656c2063616c6c206661696c6564815250856001600160a01b0316611b6f9092919063ffffffff16565b8051909150156117de57808060200190516020811015611ad057600080fd5b50516117de5760405162461bcd60e51b815260040180806020018281038252602a815260200180611d57602a913960400191505060405180910390fd5b60008183611b5c5760405162461bcd60e51b81526020600482018181528351602484015283519092839260449091019190850190808383600083156119b457818101518382015260200161199c565b50828481611b6657fe5b06949350505050565b6060611b7e8484600085611b86565b949350505050565b6060611b9185611cf3565b611be2576040805162461bcd60e51b815260206004820152601d60248201527f416464726573733a2063616c6c20746f206e6f6e2d636f6e7472616374000000604482015290519081900360640190fd5b60006060866001600160a01b031685876040518082805190602001908083835b60208310611c215780518252601f199092019160209182019101611c02565b6001836020036101000a03801982511681845116808217855250505050505090500191505060006040518083038185875af1925050503d8060008114611c83576040519150601f19603f3d011682016040523d82523d6000602084013e611c88565b606091505b50915091508115611c9c579150611b7e9050565b805115611cac5780518082602001fd5b60405162461bcd60e51b81526020600482018181528651602484015286518793919283926044019190850190808383600083156119b457818101518382015260200161199c565b6000813f7fc5d2460186f7233c927e7db2dcc703c0e500b653ca82273b7bfad8045d85a470818114801590611b7e575050151592915050565b6040518060800160405280600081526020016000815260200160008152602001600015158152509056fe5361666542455032303a204245503230206f7065726174696f6e20646964206e6f7420737563636565644f776e61626c653a206e6577206f776e657220697320746865207a65726f2061646472657373536166654d6174683a206d756c7469706c69636174696f6e206f766572666c6f774f776e61626c653a2063616c6c6572206973206e6f7420746865206f776e65728be0079c531659141344cd1fd0a4f28419497f9722a3daafe3b4186f6b6457e0a26469706673582212201df71fde2f1324dc6270f0d9b2d639afda4a3c4850ebd8ce392cee1548256cf364736f6c63430006060033536166654d6174683a206d756c7469706c69636174696f6e206f766572666c6f77",
  "immutableReferences": {},
  "source": "pragma solidity =0.6.6;\n\nimport '@BakeryProject/bakery-swap-lib/contracts/math/SafeMath.sol';\nimport '@BakeryProject/bakery-swap-lib/contracts/token/BEP20/IBEP20.sol';\nimport '@BakeryProject/bakery-swap-lib/contracts/token/BEP20/SafeBEP20.sol';\nimport '@BakeryProject/bakery-swap-lib/contracts/access/Ownable.sol';\n\nimport './BakeryToken.sol';\n\ncontract BakeryMaster is Ownable {\n    using SafeMath for uint256;\n    using SafeBEP20 for IBEP20;\n    // Info of each user.\n    struct UserInfo {\n        uint256 amount; // How many LP tokens the user has provided.\n        uint256 rewardDebt; // Reward debt. See explanation below.\n        //\n        // We do some fancy math here. Basically, any point in time, the amount of BAKEs\n        // entitled to a user but is pending to be distributed is:\n        //\n        //   pending reward = (userInfo.amount * pool.accBakePerShare) - userInfo.rewardDebt\n        //\n        // Whenever a user deposits or withdraws LP tokens to a pool. Here's what happens:\n        //   1. The pool's `accBakePerShare` (and `lastRewardBlock`) gets updated.\n        //   2. User receives the pending reward sent to his/her address.\n        //   3. User's `amount` gets updated.\n        //   4. User's `rewardDebt` gets updated.\n    }\n\n    // Info of each pool.\n    struct PoolInfo {\n        uint256 allocPoint; // How many allocation points assigned to this pool. BAKEs to distribute per block.\n        uint256 lastRewardBlock; // Last block number that BAKEs distribution occurs.\n        uint256 accBakePerShare; // Accumulated BAKEs per share, times 1e12. See below.\n        bool exists; //\n    }\n    // BAKE tokens created first block.\n    uint256 public bakeStartBlock;\n    // Total allocation points. Must be the sum of all allocation points in all pools.\n    uint256 public totalAllocPoint = 0;\n    // The block number when BAKE mining starts.\n    uint256 public startBlock;\n    // Block number when bonus BAKE period ends.\n    uint256 public bonusEndBlock;\n    // how many block size will change the common difference before bonus end.\n    uint256 public bonusBeforeBulkBlockSize;\n    // how many block size will change the common difference after bonus end.\n    uint256 public bonusEndBulkBlockSize;\n    // BAKE tokens created at bonus end block.\n    uint256 public bakeBonusEndBlock;\n    // max reward block\n    uint256 public maxRewardBlockNumber;\n    // bonus before the common difference\n    uint256 public bonusBeforeCommonDifference;\n    // bonus after the common difference\n    uint256 public bonusEndCommonDifference;\n    // Accumulated BAKEs per share, times 1e12.\n    uint256 public accBakePerShareMultiple = 1E12;\n    // The BAKE TOKEN!\n    BakeryToken public bake;\n    // Dev address.\n    address public devAddr;\n    address[] public poolAddresses;\n    // Info of each pool.\n    mapping(address => PoolInfo) public poolInfoMap;\n    // Info of each user that stakes LP tokens.\n    mapping(address => mapping(address => UserInfo)) public poolUserInfoMap;\n\n    event Deposit(address indexed user, address indexed poolAddress, uint256 amount);\n    event Withdraw(address indexed user, address indexed poolAddress, uint256 amount);\n    event EmergencyWithdraw(address indexed user, address indexed poolAddress, uint256 amount);\n\n    constructor(\n        BakeryToken _bake,\n        address _devAddr,\n        uint256 _bakeStartBlock,\n        uint256 _startBlock,\n        uint256 _bonusEndBlock,\n        uint256 _bonusBeforeBulkBlockSize,\n        uint256 _bonusBeforeCommonDifference,\n        uint256 _bonusEndCommonDifference\n    ) public {\n        bake = _bake;\n        devAddr = _devAddr;\n        bakeStartBlock = _bakeStartBlock;\n        startBlock = _startBlock;\n        bonusEndBlock = _bonusEndBlock;\n        bonusBeforeBulkBlockSize = _bonusBeforeBulkBlockSize;\n        bonusBeforeCommonDifference = _bonusBeforeCommonDifference;\n        bonusEndCommonDifference = _bonusEndCommonDifference;\n        bonusEndBulkBlockSize = bonusEndBlock.sub(startBlock);\n        // bake created when bonus end first block.\n        // (bakeStartBlock - bonusBeforeCommonDifference * ((bonusEndBlock-startBlock)/bonusBeforeBulkBlockSize - 1)) * bonusBeforeBulkBlockSize*(bonusEndBulkBlockSize/bonusBeforeBulkBlockSize) * bonusEndBulkBlockSize\n        bakeBonusEndBlock = bakeStartBlock\n            .sub(bonusEndBlock.sub(startBlock).div(bonusBeforeBulkBlockSize).sub(1).mul(bonusBeforeCommonDifference))\n            .mul(bonusBeforeBulkBlockSize)\n            .mul(bonusEndBulkBlockSize.div(bonusBeforeBulkBlockSize))\n            .div(bonusEndBulkBlockSize);\n        // max mint block number, _bakeInitBlock - (MAX-1)*_commonDifference = 0\n        // MAX = startBlock + bonusEndBulkBlockSize * (_bakeInitBlock/_commonDifference + 1)\n        maxRewardBlockNumber = startBlock.add(\n            bonusEndBulkBlockSize.mul(bakeBonusEndBlock.div(bonusEndCommonDifference).add(1))\n        );\n    }\n\n    // *** POOL MANAGER ***\n    function poolLength() external view returns (uint256) {\n        return poolAddresses.length;\n    }\n\n    // Add a new lp to the pool. Can only be called by the owner.\n    // XXX DO NOT add the same LP token more than once. Rewards will be messed up if you do.\n    function add(\n        uint256 _allocPoint,\n        address _pair,\n        bool _withUpdate\n    ) public onlyOwner {\n        if (_withUpdate) {\n            massUpdatePools();\n        }\n        PoolInfo storage pool = poolInfoMap[_pair];\n        require(!pool.exists, 'pool already exists');\n        uint256 lastRewardBlock = block.number > startBlock ? block.number : startBlock;\n        totalAllocPoint = totalAllocPoint.add(_allocPoint);\n        pool.allocPoint = _allocPoint;\n        pool.lastRewardBlock = lastRewardBlock;\n        pool.accBakePerShare = 0;\n        pool.exists = true;\n        poolAddresses.push(_pair);\n    }\n\n    // Update the given pool's BAKE allocation point. Can only be called by the owner.\n    function set(\n        address _pair,\n        uint256 _allocPoint,\n        bool _withUpdate\n    ) public onlyOwner {\n        if (_withUpdate) {\n            massUpdatePools();\n        }\n        PoolInfo storage pool = poolInfoMap[_pair];\n        require(pool.exists, 'pool not exists');\n        totalAllocPoint = totalAllocPoint.sub(pool.allocPoint).add(_allocPoint);\n        pool.allocPoint = _allocPoint;\n    }\n\n    function existsPool(address _pair) external view returns (bool) {\n        return poolInfoMap[_pair].exists;\n    }\n\n    // (_from,_to]\n    function getTotalRewardInfoInSameCommonDifference(\n        uint256 _from,\n        uint256 _to,\n        uint256 _bakeInitBlock,\n        uint256 _bulkBlockSize,\n        uint256 _commonDifference\n    ) public view returns (uint256 totalReward) {\n        if (_to < startBlock || maxRewardBlockNumber <= _from) {\n            return 0;\n        }\n        if (_from < startBlock) {\n            _from = startBlock;\n        }\n        if (maxRewardBlockNumber < _to) {\n            _to = maxRewardBlockNumber;\n        }\n        uint256 currentBulkNumber = _to.sub(startBlock).div(_bulkBlockSize).add(\n            _to.sub(startBlock).mod(_bulkBlockSize) > 0 ? 1 : 0\n        );\n        if (currentBulkNumber < 1) {\n            currentBulkNumber = 1;\n        }\n        uint256 fromBulkNumber = _from.sub(startBlock).div(_bulkBlockSize).add(\n            _from.sub(startBlock).mod(_bulkBlockSize) > 0 ? 1 : 0\n        );\n        if (fromBulkNumber < 1) {\n            fromBulkNumber = 1;\n        }\n        if (fromBulkNumber == currentBulkNumber) {\n            return _to.sub(_from).mul(_bakeInitBlock.sub(currentBulkNumber.sub(1).mul(_commonDifference)));\n        }\n        uint256 lastRewardBulkLastBlock = startBlock.add(_bulkBlockSize.mul(fromBulkNumber));\n        uint256 currentPreviousBulkLastBlock = startBlock.add(_bulkBlockSize.mul(currentBulkNumber.sub(1)));\n        {\n            uint256 tempFrom = _from;\n            uint256 tempTo = _to;\n            totalReward = tempTo\n                .sub(tempFrom > currentPreviousBulkLastBlock ? tempFrom : currentPreviousBulkLastBlock)\n                .mul(_bakeInitBlock.sub(currentBulkNumber.sub(1).mul(_commonDifference)));\n            if (lastRewardBulkLastBlock > tempFrom && lastRewardBulkLastBlock <= tempTo) {\n                totalReward = totalReward.add(\n                    lastRewardBulkLastBlock.sub(tempFrom).mul(\n                        _bakeInitBlock.sub(fromBulkNumber > 0 ? fromBulkNumber.sub(1).mul(_commonDifference) : 0)\n                    )\n                );\n            }\n        }\n        {\n            // avoids stack too deep errors\n            uint256 tempBakeInitBlock = _bakeInitBlock;\n            uint256 tempBulkBlockSize = _bulkBlockSize;\n            uint256 tempCommonDifference = _commonDifference;\n            if (currentPreviousBulkLastBlock > lastRewardBulkLastBlock) {\n                uint256 tempCurrentPreviousBulkLastBlock = currentPreviousBulkLastBlock;\n                // sum( [fromBulkNumber+1, currentBulkNumber] )\n                // 1/2 * N *( a1 + aN)\n                uint256 N = tempCurrentPreviousBulkLastBlock.sub(lastRewardBulkLastBlock).div(tempBulkBlockSize);\n                if (N > 1) {\n                    uint256 a1 = tempBulkBlockSize.mul(\n                        tempBakeInitBlock.sub(\n                            lastRewardBulkLastBlock.sub(startBlock).mul(tempCommonDifference).div(tempBulkBlockSize)\n                        )\n                    );\n                    uint256 aN = tempBulkBlockSize.mul(\n                        tempBakeInitBlock.sub(\n                            tempCurrentPreviousBulkLastBlock.sub(startBlock).div(tempBulkBlockSize).sub(1).mul(\n                                tempCommonDifference\n                            )\n                        )\n                    );\n                    totalReward = totalReward.add(N.mul(a1.add(aN)).div(2));\n                } else {\n                    totalReward = totalReward.add(\n                        tempBulkBlockSize.mul(tempBakeInitBlock.sub(currentBulkNumber.sub(2).mul(tempCommonDifference)))\n                    );\n                }\n            }\n        }\n    }\n\n    // Return total reward over the given _from to _to block.\n    function getTotalRewardInfo(uint256 _from, uint256 _to) public view returns (uint256 totalReward) {\n        if (_to <= bonusEndBlock) {\n            totalReward = getTotalRewardInfoInSameCommonDifference(\n                _from,\n                _to,\n                bakeStartBlock,\n                bonusBeforeBulkBlockSize,\n                bonusBeforeCommonDifference\n            );\n        } else if (_from >= bonusEndBlock) {\n            totalReward = getTotalRewardInfoInSameCommonDifference(\n                _from,\n                _to,\n                bakeBonusEndBlock,\n                bonusEndBulkBlockSize,\n                bonusEndCommonDifference\n            );\n        } else {\n            totalReward = getTotalRewardInfoInSameCommonDifference(\n                _from,\n                bonusEndBlock,\n                bakeStartBlock,\n                bonusBeforeBulkBlockSize,\n                bonusBeforeCommonDifference\n            )\n                .add(\n                getTotalRewardInfoInSameCommonDifference(\n                    bonusEndBlock,\n                    _to,\n                    bakeBonusEndBlock,\n                    bonusEndBulkBlockSize,\n                    bonusEndCommonDifference\n                )\n            );\n        }\n    }\n\n    // View function to see pending BAKEs on frontend.\n    function pendingBake(address _pair, address _user) external view returns (uint256) {\n        PoolInfo memory pool = poolInfoMap[_pair];\n        if (!pool.exists) {\n            return 0;\n        }\n        UserInfo storage userInfo = poolUserInfoMap[_pair][_user];\n        uint256 accBakePerShare = pool.accBakePerShare;\n        uint256 lpSupply = IBEP20(_pair).balanceOf(address(this));\n        if (block.number > pool.lastRewardBlock && lpSupply != 0 && pool.lastRewardBlock < maxRewardBlockNumber) {\n            uint256 totalReward = getTotalRewardInfo(pool.lastRewardBlock, block.number);\n            uint256 bakeReward = totalReward.mul(pool.allocPoint).div(totalAllocPoint);\n            accBakePerShare = accBakePerShare.add(bakeReward.mul(accBakePerShareMultiple).div(lpSupply));\n        }\n        return userInfo.amount.mul(accBakePerShare).div(accBakePerShareMultiple).sub(userInfo.rewardDebt);\n    }\n\n    // Update reward vairables for all pools. Be careful of gas spending!\n    function massUpdatePools() public {\n        uint256 length = poolAddresses.length;\n        for (uint256 i = 0; i < length; ++i) {\n            updatePool(poolAddresses[i]);\n        }\n    }\n\n    // Update reward variables of the given pool to be up-to-date.\n    function updatePool(address _pair) public {\n        PoolInfo storage pool = poolInfoMap[_pair];\n        if (!pool.exists || block.number <= pool.lastRewardBlock) {\n            return;\n        }\n        uint256 lpSupply = IBEP20(_pair).balanceOf(address(this));\n        if (lpSupply == 0) {\n            pool.lastRewardBlock = block.number;\n            return;\n        }\n        if (pool.lastRewardBlock >= maxRewardBlockNumber) {\n            return;\n        }\n        uint256 totalReward = getTotalRewardInfo(pool.lastRewardBlock, block.number);\n        uint256 bakeReward = totalReward.mul(pool.allocPoint).div(totalAllocPoint);\n        bake.mintTo(devAddr, bakeReward.div(100));\n        bake.mintTo(address(this), bakeReward);\n        pool.accBakePerShare = pool.accBakePerShare.add(bakeReward.mul(accBakePerShareMultiple).div(lpSupply));\n        pool.lastRewardBlock = block.number;\n    }\n\n    // Deposit LP tokens to BakeryMaster for BAKE allocation.\n    function deposit(address _pair, uint256 _amount) public {\n        PoolInfo storage pool = poolInfoMap[_pair];\n        UserInfo storage userInfo = poolUserInfoMap[_pair][msg.sender];\n        updatePool(_pair);\n        if (userInfo.amount > 0) {\n            uint256 pending = userInfo.amount.mul(pool.accBakePerShare).div(accBakePerShareMultiple).sub(\n                userInfo.rewardDebt\n            );\n            if (pending > 0) {\n                safeBakeTransfer(msg.sender, pending);\n            }\n        }\n        IBEP20(_pair).safeTransferFrom(address(msg.sender), address(this), _amount);\n        userInfo.amount = userInfo.amount.add(_amount);\n        userInfo.rewardDebt = userInfo.amount.mul(pool.accBakePerShare).div(accBakePerShareMultiple);\n        emit Deposit(msg.sender, _pair, _amount);\n    }\n\n    // Withdraw LP tokens from BakeryMaster.\n    function withdraw(address _pair, uint256 _amount) public {\n        PoolInfo storage pool = poolInfoMap[_pair];\n        UserInfo storage userInfo = poolUserInfoMap[_pair][msg.sender];\n        require(userInfo.amount >= _amount, 'withdraw: not good');\n        updatePool(_pair);\n        uint256 pending = userInfo.amount.mul(pool.accBakePerShare).div(accBakePerShareMultiple).sub(\n            userInfo.rewardDebt\n        );\n        if (pending > 0) {\n            safeBakeTransfer(msg.sender, pending);\n        }\n        if (_amount > 0) {\n            userInfo.amount = userInfo.amount.sub(_amount);\n            IBEP20(_pair).safeTransfer(address(msg.sender), _amount);\n        }\n        userInfo.rewardDebt = userInfo.amount.mul(pool.accBakePerShare).div(accBakePerShareMultiple);\n        emit Withdraw(msg.sender, _pair, _amount);\n    }\n\n    // Withdraw without caring about rewards. EMERGENCY ONLY.\n    function emergencyWithdraw(address _pair) public {\n        UserInfo storage userInfo = poolUserInfoMap[_pair][msg.sender];\n        IBEP20(_pair).safeTransfer(address(msg.sender), userInfo.amount);\n        emit EmergencyWithdraw(msg.sender, _pair, userInfo.amount);\n        userInfo.amount = 0;\n        userInfo.rewardDebt = 0;\n    }\n\n    // Safe bake transfer function, just in case if rounding error causes pool to not have enough BAKEs.\n    function safeBakeTransfer(address _to, uint256 _amount) internal {\n        uint256 bakeBal = bake.balanceOf(address(this));\n        if (_amount > bakeBal) {\n            bake.transfer(_to, bakeBal);\n        } else {\n            bake.transfer(_to, _amount);\n        }\n    }\n\n    // Update dev address by the previous dev.\n    function dev(address _devAddr) public {\n        require(msg.sender == devAddr, 'dev: wut?');\n        devAddr = _devAddr;\n    }\n}\n",
  "sourcePath": "/home/apoorva/Documents/projects/BlueBerrySwap/BlueBerrySwap-Periphery/contracts/BakeryMaster.sol",
  "compiler": {
    "name": "solc",
    "version": "0.6.6+commit.6c089d02.Emscripten.clang"
  },
  "schemaVersion": "3.4.3",
  "updatedAt": "2021-09-06T08:53:31.724Z",
  "devdoc": {
    "methods": {
      "owner()": {
        "details": "Returns the address of the current owner."
      },
      "renounceOwnership()": {
        "details": "Leaves the contract without owner. It will not be possible to call `onlyOwner` functions anymore. Can only be called by the current owner.     * NOTE: Renouncing ownership will leave the contract without an owner, thereby removing any functionality that is only available to the owner."
      },
      "transferOwnership(address)": {
        "details": "Transfers ownership of the contract to a new account (`newOwner`). Can only be called by the current owner."
      }
    }
  },
  "userdoc": {
    "methods": {}
  }
}