{
  "contractName": "BakerySwapRouter",
  "abi": [
    {
      "inputs": [
        {
          "internalType": "address",
          "name": "_factory",
          "type": "address"
        },
        {
          "internalType": "address",
          "name": "_WBNB",
          "type": "address"
        }
      ],
      "stateMutability": "nonpayable",
      "type": "constructor"
    },
    {
      "inputs": [],
      "name": "WBNB",
      "outputs": [
        {
          "internalType": "address",
          "name": "",
          "type": "address"
        }
      ],
      "stateMutability": "view",
      "type": "function",
      "constant": true
    },
    {
      "inputs": [],
      "name": "factory",
      "outputs": [
        {
          "internalType": "address",
          "name": "",
          "type": "address"
        }
      ],
      "stateMutability": "view",
      "type": "function",
      "constant": true
    },
    {
      "stateMutability": "payable",
      "type": "receive",
      "payable": true
    },
    {
      "inputs": [
        {
          "internalType": "address",
          "name": "tokenA",
          "type": "address"
        },
        {
          "internalType": "address",
          "name": "tokenB",
          "type": "address"
        },
        {
          "internalType": "uint256",
          "name": "amountADesired",
          "type": "uint256"
        },
        {
          "internalType": "uint256",
          "name": "amountBDesired",
          "type": "uint256"
        },
        {
          "internalType": "uint256",
          "name": "amountAMin",
          "type": "uint256"
        },
        {
          "internalType": "uint256",
          "name": "amountBMin",
          "type": "uint256"
        },
        {
          "internalType": "address",
          "name": "to",
          "type": "address"
        },
        {
          "internalType": "uint256",
          "name": "deadline",
          "type": "uint256"
        }
      ],
      "name": "addLiquidity",
      "outputs": [
        {
          "internalType": "uint256",
          "name": "amountA",
          "type": "uint256"
        },
        {
          "internalType": "uint256",
          "name": "amountB",
          "type": "uint256"
        },
        {
          "internalType": "uint256",
          "name": "liquidity",
          "type": "uint256"
        }
      ],
      "stateMutability": "nonpayable",
      "type": "function"
    },
    {
      "inputs": [
        {
          "internalType": "address",
          "name": "token",
          "type": "address"
        },
        {
          "internalType": "uint256",
          "name": "amountTokenDesired",
          "type": "uint256"
        },
        {
          "internalType": "uint256",
          "name": "amountTokenMin",
          "type": "uint256"
        },
        {
          "internalType": "uint256",
          "name": "amountBNBMin",
          "type": "uint256"
        },
        {
          "internalType": "address",
          "name": "to",
          "type": "address"
        },
        {
          "internalType": "uint256",
          "name": "deadline",
          "type": "uint256"
        }
      ],
      "name": "addLiquidityBNB",
      "outputs": [
        {
          "internalType": "uint256",
          "name": "amountToken",
          "type": "uint256"
        },
        {
          "internalType": "uint256",
          "name": "amountBNB",
          "type": "uint256"
        },
        {
          "internalType": "uint256",
          "name": "liquidity",
          "type": "uint256"
        }
      ],
      "stateMutability": "payable",
      "type": "function",
      "payable": true
    },
    {
      "inputs": [
        {
          "internalType": "address",
          "name": "tokenA",
          "type": "address"
        },
        {
          "internalType": "address",
          "name": "tokenB",
          "type": "address"
        },
        {
          "internalType": "uint256",
          "name": "liquidity",
          "type": "uint256"
        },
        {
          "internalType": "uint256",
          "name": "amountAMin",
          "type": "uint256"
        },
        {
          "internalType": "uint256",
          "name": "amountBMin",
          "type": "uint256"
        },
        {
          "internalType": "address",
          "name": "to",
          "type": "address"
        },
        {
          "internalType": "uint256",
          "name": "deadline",
          "type": "uint256"
        }
      ],
      "name": "removeLiquidity",
      "outputs": [
        {
          "internalType": "uint256",
          "name": "amountA",
          "type": "uint256"
        },
        {
          "internalType": "uint256",
          "name": "amountB",
          "type": "uint256"
        }
      ],
      "stateMutability": "nonpayable",
      "type": "function"
    },
    {
      "inputs": [
        {
          "internalType": "address",
          "name": "token",
          "type": "address"
        },
        {
          "internalType": "uint256",
          "name": "liquidity",
          "type": "uint256"
        },
        {
          "internalType": "uint256",
          "name": "amountTokenMin",
          "type": "uint256"
        },
        {
          "internalType": "uint256",
          "name": "amountBNBMin",
          "type": "uint256"
        },
        {
          "internalType": "address",
          "name": "to",
          "type": "address"
        },
        {
          "internalType": "uint256",
          "name": "deadline",
          "type": "uint256"
        }
      ],
      "name": "removeLiquidityBNB",
      "outputs": [
        {
          "internalType": "uint256",
          "name": "amountToken",
          "type": "uint256"
        },
        {
          "internalType": "uint256",
          "name": "amountBNB",
          "type": "uint256"
        }
      ],
      "stateMutability": "nonpayable",
      "type": "function"
    },
    {
      "inputs": [
        {
          "internalType": "address",
          "name": "tokenA",
          "type": "address"
        },
        {
          "internalType": "address",
          "name": "tokenB",
          "type": "address"
        },
        {
          "internalType": "uint256",
          "name": "liquidity",
          "type": "uint256"
        },
        {
          "internalType": "uint256",
          "name": "amountAMin",
          "type": "uint256"
        },
        {
          "internalType": "uint256",
          "name": "amountBMin",
          "type": "uint256"
        },
        {
          "internalType": "address",
          "name": "to",
          "type": "address"
        },
        {
          "internalType": "uint256",
          "name": "deadline",
          "type": "uint256"
        },
        {
          "internalType": "bool",
          "name": "approveMax",
          "type": "bool"
        },
        {
          "internalType": "uint8",
          "name": "v",
          "type": "uint8"
        },
        {
          "internalType": "bytes32",
          "name": "r",
          "type": "bytes32"
        },
        {
          "internalType": "bytes32",
          "name": "s",
          "type": "bytes32"
        }
      ],
      "name": "removeLiquidityWithPermit",
      "outputs": [
        {
          "internalType": "uint256",
          "name": "amountA",
          "type": "uint256"
        },
        {
          "internalType": "uint256",
          "name": "amountB",
          "type": "uint256"
        }
      ],
      "stateMutability": "nonpayable",
      "type": "function"
    },
    {
      "inputs": [
        {
          "internalType": "address",
          "name": "token",
          "type": "address"
        },
        {
          "internalType": "uint256",
          "name": "liquidity",
          "type": "uint256"
        },
        {
          "internalType": "uint256",
          "name": "amountTokenMin",
          "type": "uint256"
        },
        {
          "internalType": "uint256",
          "name": "amountBNBMin",
          "type": "uint256"
        },
        {
          "internalType": "address",
          "name": "to",
          "type": "address"
        },
        {
          "internalType": "uint256",
          "name": "deadline",
          "type": "uint256"
        },
        {
          "internalType": "bool",
          "name": "approveMax",
          "type": "bool"
        },
        {
          "internalType": "uint8",
          "name": "v",
          "type": "uint8"
        },
        {
          "internalType": "bytes32",
          "name": "r",
          "type": "bytes32"
        },
        {
          "internalType": "bytes32",
          "name": "s",
          "type": "bytes32"
        }
      ],
      "name": "removeLiquidityBNBWithPermit",
      "outputs": [
        {
          "internalType": "uint256",
          "name": "amountToken",
          "type": "uint256"
        },
        {
          "internalType": "uint256",
          "name": "amountBNB",
          "type": "uint256"
        }
      ],
      "stateMutability": "nonpayable",
      "type": "function"
    },
    {
      "inputs": [
        {
          "internalType": "address",
          "name": "token",
          "type": "address"
        },
        {
          "internalType": "uint256",
          "name": "liquidity",
          "type": "uint256"
        },
        {
          "internalType": "uint256",
          "name": "amountTokenMin",
          "type": "uint256"
        },
        {
          "internalType": "uint256",
          "name": "amountBNBMin",
          "type": "uint256"
        },
        {
          "internalType": "address",
          "name": "to",
          "type": "address"
        },
        {
          "internalType": "uint256",
          "name": "deadline",
          "type": "uint256"
        }
      ],
      "name": "removeLiquidityBNBSupportingFeeOnTransferTokens",
      "outputs": [
        {
          "internalType": "uint256",
          "name": "amountBNB",
          "type": "uint256"
        }
      ],
      "stateMutability": "nonpayable",
      "type": "function"
    },
    {
      "inputs": [
        {
          "internalType": "address",
          "name": "token",
          "type": "address"
        },
        {
          "internalType": "uint256",
          "name": "liquidity",
          "type": "uint256"
        },
        {
          "internalType": "uint256",
          "name": "amountTokenMin",
          "type": "uint256"
        },
        {
          "internalType": "uint256",
          "name": "amountBNBMin",
          "type": "uint256"
        },
        {
          "internalType": "address",
          "name": "to",
          "type": "address"
        },
        {
          "internalType": "uint256",
          "name": "deadline",
          "type": "uint256"
        },
        {
          "internalType": "bool",
          "name": "approveMax",
          "type": "bool"
        },
        {
          "internalType": "uint8",
          "name": "v",
          "type": "uint8"
        },
        {
          "internalType": "bytes32",
          "name": "r",
          "type": "bytes32"
        },
        {
          "internalType": "bytes32",
          "name": "s",
          "type": "bytes32"
        }
      ],
      "name": "removeLiquidityBNBWithPermitSupportingFeeOnTransferTokens",
      "outputs": [
        {
          "internalType": "uint256",
          "name": "amountBNB",
          "type": "uint256"
        }
      ],
      "stateMutability": "nonpayable",
      "type": "function"
    },
    {
      "inputs": [
        {
          "internalType": "uint256",
          "name": "amountIn",
          "type": "uint256"
        },
        {
          "internalType": "uint256",
          "name": "amountOutMin",
          "type": "uint256"
        },
        {
          "internalType": "address[]",
          "name": "path",
          "type": "address[]"
        },
        {
          "internalType": "address",
          "name": "to",
          "type": "address"
        },
        {
          "internalType": "uint256",
          "name": "deadline",
          "type": "uint256"
        }
      ],
      "name": "swapExactTokensForTokens",
      "outputs": [
        {
          "internalType": "uint256[]",
          "name": "amounts",
          "type": "uint256[]"
        }
      ],
      "stateMutability": "nonpayable",
      "type": "function"
    },
    {
      "inputs": [
        {
          "internalType": "uint256",
          "name": "amountOut",
          "type": "uint256"
        },
        {
          "internalType": "uint256",
          "name": "amountInMax",
          "type": "uint256"
        },
        {
          "internalType": "address[]",
          "name": "path",
          "type": "address[]"
        },
        {
          "internalType": "address",
          "name": "to",
          "type": "address"
        },
        {
          "internalType": "uint256",
          "name": "deadline",
          "type": "uint256"
        }
      ],
      "name": "swapTokensForExactTokens",
      "outputs": [
        {
          "internalType": "uint256[]",
          "name": "amounts",
          "type": "uint256[]"
        }
      ],
      "stateMutability": "nonpayable",
      "type": "function"
    },
    {
      "inputs": [
        {
          "internalType": "uint256",
          "name": "amountOutMin",
          "type": "uint256"
        },
        {
          "internalType": "address[]",
          "name": "path",
          "type": "address[]"
        },
        {
          "internalType": "address",
          "name": "to",
          "type": "address"
        },
        {
          "internalType": "uint256",
          "name": "deadline",
          "type": "uint256"
        }
      ],
      "name": "swapExactBNBForTokens",
      "outputs": [
        {
          "internalType": "uint256[]",
          "name": "amounts",
          "type": "uint256[]"
        }
      ],
      "stateMutability": "payable",
      "type": "function",
      "payable": true
    },
    {
      "inputs": [
        {
          "internalType": "uint256",
          "name": "amountOut",
          "type": "uint256"
        },
        {
          "internalType": "uint256",
          "name": "amountInMax",
          "type": "uint256"
        },
        {
          "internalType": "address[]",
          "name": "path",
          "type": "address[]"
        },
        {
          "internalType": "address",
          "name": "to",
          "type": "address"
        },
        {
          "internalType": "uint256",
          "name": "deadline",
          "type": "uint256"
        }
      ],
      "name": "swapTokensForExactBNB",
      "outputs": [
        {
          "internalType": "uint256[]",
          "name": "amounts",
          "type": "uint256[]"
        }
      ],
      "stateMutability": "nonpayable",
      "type": "function"
    },
    {
      "inputs": [
        {
          "internalType": "uint256",
          "name": "amountIn",
          "type": "uint256"
        },
        {
          "internalType": "uint256",
          "name": "amountOutMin",
          "type": "uint256"
        },
        {
          "internalType": "address[]",
          "name": "path",
          "type": "address[]"
        },
        {
          "internalType": "address",
          "name": "to",
          "type": "address"
        },
        {
          "internalType": "uint256",
          "name": "deadline",
          "type": "uint256"
        }
      ],
      "name": "swapExactTokensForBNB",
      "outputs": [
        {
          "internalType": "uint256[]",
          "name": "amounts",
          "type": "uint256[]"
        }
      ],
      "stateMutability": "nonpayable",
      "type": "function"
    },
    {
      "inputs": [
        {
          "internalType": "uint256",
          "name": "amountOut",
          "type": "uint256"
        },
        {
          "internalType": "address[]",
          "name": "path",
          "type": "address[]"
        },
        {
          "internalType": "address",
          "name": "to",
          "type": "address"
        },
        {
          "internalType": "uint256",
          "name": "deadline",
          "type": "uint256"
        }
      ],
      "name": "swapBNBForExactTokens",
      "outputs": [
        {
          "internalType": "uint256[]",
          "name": "amounts",
          "type": "uint256[]"
        }
      ],
      "stateMutability": "payable",
      "type": "function",
      "payable": true
    },
    {
      "inputs": [
        {
          "internalType": "uint256",
          "name": "amountIn",
          "type": "uint256"
        },
        {
          "internalType": "uint256",
          "name": "amountOutMin",
          "type": "uint256"
        },
        {
          "internalType": "address[]",
          "name": "path",
          "type": "address[]"
        },
        {
          "internalType": "address",
          "name": "to",
          "type": "address"
        },
        {
          "internalType": "uint256",
          "name": "deadline",
          "type": "uint256"
        }
      ],
      "name": "swapExactTokensForTokensSupportingFeeOnTransferTokens",
      "outputs": [],
      "stateMutability": "nonpayable",
      "type": "function"
    },
    {
      "inputs": [
        {
          "internalType": "uint256",
          "name": "amountOutMin",
          "type": "uint256"
        },
        {
          "internalType": "address[]",
          "name": "path",
          "type": "address[]"
        },
        {
          "internalType": "address",
          "name": "to",
          "type": "address"
        },
        {
          "internalType": "uint256",
          "name": "deadline",
          "type": "uint256"
        }
      ],
      "name": "swapExactBNBForTokensSupportingFeeOnTransferTokens",
      "outputs": [],
      "stateMutability": "payable",
      "type": "function",
      "payable": true
    },
    {
      "inputs": [
        {
          "internalType": "uint256",
          "name": "amountIn",
          "type": "uint256"
        },
        {
          "internalType": "uint256",
          "name": "amountOutMin",
          "type": "uint256"
        },
        {
          "internalType": "address[]",
          "name": "path",
          "type": "address[]"
        },
        {
          "internalType": "address",
          "name": "to",
          "type": "address"
        },
        {
          "internalType": "uint256",
          "name": "deadline",
          "type": "uint256"
        }
      ],
      "name": "swapExactTokensForBNBSupportingFeeOnTransferTokens",
      "outputs": [],
      "stateMutability": "nonpayable",
      "type": "function"
    },
    {
      "inputs": [
        {
          "internalType": "uint256",
          "name": "amountA",
          "type": "uint256"
        },
        {
          "internalType": "uint256",
          "name": "reserveA",
          "type": "uint256"
        },
        {
          "internalType": "uint256",
          "name": "reserveB",
          "type": "uint256"
        }
      ],
      "name": "quote",
      "outputs": [
        {
          "internalType": "uint256",
          "name": "amountB",
          "type": "uint256"
        }
      ],
      "stateMutability": "pure",
      "type": "function",
      "constant": true
    },
    {
      "inputs": [
        {
          "internalType": "uint256",
          "name": "amountIn",
          "type": "uint256"
        },
        {
          "internalType": "uint256",
          "name": "reserveIn",
          "type": "uint256"
        },
        {
          "internalType": "uint256",
          "name": "reserveOut",
          "type": "uint256"
        }
      ],
      "name": "getAmountOut",
      "outputs": [
        {
          "internalType": "uint256",
          "name": "amountOut",
          "type": "uint256"
        }
      ],
      "stateMutability": "pure",
      "type": "function",
      "constant": true
    },
    {
      "inputs": [
        {
          "internalType": "uint256",
          "name": "amountOut",
          "type": "uint256"
        },
        {
          "internalType": "uint256",
          "name": "reserveIn",
          "type": "uint256"
        },
        {
          "internalType": "uint256",
          "name": "reserveOut",
          "type": "uint256"
        }
      ],
      "name": "getAmountIn",
      "outputs": [
        {
          "internalType": "uint256",
          "name": "amountIn",
          "type": "uint256"
        }
      ],
      "stateMutability": "pure",
      "type": "function",
      "constant": true
    },
    {
      "inputs": [
        {
          "internalType": "uint256",
          "name": "amountIn",
          "type": "uint256"
        },
        {
          "internalType": "address[]",
          "name": "path",
          "type": "address[]"
        }
      ],
      "name": "getAmountsOut",
      "outputs": [
        {
          "internalType": "uint256[]",
          "name": "amounts",
          "type": "uint256[]"
        }
      ],
      "stateMutability": "view",
      "type": "function",
      "constant": true
    },
    {
      "inputs": [
        {
          "internalType": "uint256",
          "name": "amountOut",
          "type": "uint256"
        },
        {
          "internalType": "address[]",
          "name": "path",
          "type": "address[]"
        }
      ],
      "name": "getAmountsIn",
      "outputs": [
        {
          "internalType": "uint256[]",
          "name": "amounts",
          "type": "uint256[]"
        }
      ],
      "stateMutability": "view",
      "type": "function",
      "constant": true
    }
  ],
  "bytecode": "0x60c060405234801561001057600080fd5b50604051620046da380380620046da8339818101604052604081101561003557600080fd5b5080516020909101516001600160601b0319606092831b8116608052911b1660a05260805160601c60a05160601c614555620001856000398061012f5280610dd852806110ea528061117f52806111f3528061171552806118a552806119835280611aaf5280611bf25280611c7a5280611efb5280611f6552806120ab528061213352806122bf528061236e52806126d752806127d15280612887528061295d5280612ae65280612b215280612d3e5280612d945280612dc85280612e3c525080610c835280610cbc5280610db65280610f0b5280610fe25280611225528061153652806117a352806119615280611b425280611cac5280611e4b5280611ff852806121655280612442528061263a528061266352806129eb5280612c165280612d7252806135a952806135ec528061370152806138805280613e955280613f435280613fc352506145556000f3fe60806040526004361061011f5760003560e01c8063054d50d41461015d5780631f00ca74146101a55780632195995c146102aa57806334a0772d1461034157806338ed1739146103b457806350e27df31461044a5780635c11d795146104ce5780635d616c5b14610564578063685a0a34146105fa5780638332a9631461066d57806385f8c259146106f15780638803dbee146107275780638dd95002146107bd5780639cf68911146107ee578063ad615dec14610872578063b7e65949146108a8578063baa2abde146108fb578063c45a015514610958578063d06ca61f1461096d578063d46d2f8314610a22578063d67b571e14610ab8578063e058848814610b4e578063e8e3370014610ba1578063eaaed44214610c2157610158565b3661015857336001600160a01b037f0000000000000000000000000000000000000000000000000000000000000000161461015657fe5b005b600080fd5b34801561016957600080fd5b506101936004803603606081101561018057600080fd5b5080359060208101359060400135610c67565b60408051918252519081900360200190f35b3480156101b157600080fd5b5061025a600480360360408110156101c857600080fd5b81359190810190604081016020820135600160201b8111156101e957600080fd5b8201836020820111156101fb57600080fd5b803590602001918460208302840111600160201b8311171561021c57600080fd5b919080806020026020016040519081016040528093929190818152602001838360200280828437600092019190915250929550610c7c945050505050565b60408051602080825283518183015283519192839290830191858101910280838360005b8381101561029657818101518382015260200161027e565b505050509050019250505060405180910390f35b3480156102b657600080fd5b5061032860048036036101608110156102ce57600080fd5b506001600160a01b038135811691602081013582169160408201359160608101359160808201359160a08101359091169060c08101359060e081013515159060ff6101008201351690610120810135906101400135610cb2565b6040805192835260208301919091528051918290030190f35b34801561034d57600080fd5b50610328600480360361014081101561036557600080fd5b506001600160a01b0381358116916020810135916040820135916060810135916080820135169060a08101359060c081013515159060ff60e08201351690610100810135906101200135610dac565b3480156103c057600080fd5b5061025a600480360360a08110156103d757600080fd5b813591602081013591810190606081016040820135600160201b8111156103fd57600080fd5b82018360208201111561040f57600080fd5b803590602001918460208302840111600160201b8311171561043057600080fd5b91935091506001600160a01b038135169060200135610ec0565b6101566004803603608081101561046057600080fd5b81359190810190604081016020820135600160201b81111561048157600080fd5b82018360208201111561049357600080fd5b803590602001918460208302840111600160201b831117156104b457600080fd5b91935091506001600160a01b0381351690602001356110a4565b3480156104da57600080fd5b50610156600480360360a08110156104f157600080fd5b813591602081013591810190606081016040820135600160201b81111561051757600080fd5b82018360208201111561052957600080fd5b803590602001918460208302840111600160201b8311171561054a57600080fd5b91935091506001600160a01b0381351690602001356114cc565b34801561057057600080fd5b5061025a600480360360a081101561058757600080fd5b813591602081013591810190606081016040820135600160201b8111156105ad57600080fd5b8201836020820111156105bf57600080fd5b803590602001918460208302840111600160201b831117156105e057600080fd5b91935091506001600160a01b0381351690602001356116c5565b34801561060657600080fd5b50610193600480360361014081101561061e57600080fd5b506001600160a01b0381358116916020810135916040820135916060810135916080820135169060a08101359060c081013515159060ff60e08201351690610100810135906101200135611959565b61025a6004803603608081101561068357600080fd5b81359190810190604081016020820135600160201b8111156106a457600080fd5b8201836020820111156106b657600080fd5b803590602001918460208302840111600160201b831117156106d757600080fd5b91935091506001600160a01b038135169060200135611a67565b3480156106fd57600080fd5b506101936004803603606081101561071457600080fd5b5080359060208101359060400135611df3565b34801561073357600080fd5b5061025a600480360360a081101561074a57600080fd5b813591602081013591810190606081016040820135600160201b81111561077057600080fd5b82018360208201111561078257600080fd5b803590602001918460208302840111600160201b831117156107a357600080fd5b91935091506001600160a01b038135169060200135611e00565b3480156107c957600080fd5b506107d2611ef9565b604080516001600160a01b039092168252519081900360200190f35b61025a6004803603608081101561080457600080fd5b81359190810190604081016020820135600160201b81111561082557600080fd5b82018360208201111561083757600080fd5b803590602001918460208302840111600160201b8311171561085857600080fd5b91935091506001600160a01b038135169060200135611f1d565b34801561087e57600080fd5b506101936004803603606081101561089557600080fd5b5080359060208101359060400135612266565b3480156108b457600080fd5b50610193600480360360c08110156108cb57600080fd5b506001600160a01b0381358116916020810135916040820135916060810135916080820135169060a00135612273565b34801561090757600080fd5b50610328600480360360e081101561091e57600080fd5b506001600160a01b038135811691602081013582169160408201359160608101359160808201359160a08101359091169060c001356123f4565b34801561096457600080fd5b506107d2612638565b34801561097957600080fd5b5061025a6004803603604081101561099057600080fd5b81359190810190604081016020820135600160201b8111156109b157600080fd5b8201836020820111156109c357600080fd5b803590602001918460208302840111600160201b831117156109e457600080fd5b91908080602002602001604051908101604052809392919081815260200183836020028082843760009201919091525092955061265c945050505050565b348015610a2e57600080fd5b50610156600480360360a0811015610a4557600080fd5b813591602081013591810190606081016040820135600160201b811115610a6b57600080fd5b820183602082011115610a7d57600080fd5b803590602001918460208302840111600160201b83111715610a9e57600080fd5b91935091506001600160a01b038135169060200135612689565b348015610ac457600080fd5b5061025a600480360360a0811015610adb57600080fd5b813591602081013591810190606081016040820135600160201b811115610b0157600080fd5b820183602082011115610b1357600080fd5b803590602001918460208302840111600160201b83111715610b3457600080fd5b91935091506001600160a01b03813516906020013561290d565b348015610b5a57600080fd5b50610328600480360360c0811015610b7157600080fd5b506001600160a01b0381358116916020810135916040820135916060810135916080820135169060a00135612a99565b348015610bad57600080fd5b50610c036004803603610100811015610bc557600080fd5b506001600160a01b038135811691602081013582169160408201359160608101359160808201359160a08101359160c0820135169060e00135612bb3565b60408051938452602084019290925282820152519081900360600190f35b610c03600480360360c0811015610c3757600080fd5b506001600160a01b0381358116916020810135916040820135916060810135916080820135169060a00135612cef565b6000610c74848484612f94565b949350505050565b6060610ca97f00000000000000000000000000000000000000000000000000000000000000008484613084565b90505b92915050565b6000806000610ce27f00000000000000000000000000000000000000000000000000000000000000008f8f6131be565b9050600087610cf1578c610cf5565b6000195b6040805163d505accf60e01b815233600482015230602482015260448101839052606481018c905260ff8a16608482015260a4810189905260c4810188905290519192506001600160a01b0384169163d505accf9160e48082019260009290919082900301818387803b158015610d6b57600080fd5b505af1158015610d7f573d6000803e3d6000fd5b50505050610d928f8f8f8f8f8f8f6123f4565b809450819550505050509b509b9950505050505050505050565b6000806000610dfc7f00000000000000000000000000000000000000000000000000000000000000008e7f00000000000000000000000000000000000000000000000000000000000000006131be565b9050600087610e0b578c610e0f565b6000195b6040805163d505accf60e01b815233600482015230602482015260448101839052606481018c905260ff8a16608482015260a4810189905260c4810188905290519192506001600160a01b0384169163d505accf9160e48082019260009290919082900301818387803b158015610e8557600080fd5b505af1158015610e99573d6000803e3d6000fd5b50505050610eab8e8e8e8e8e8e612a99565b909f909e509c50505050505050505050505050565b60608142811015610f06576040805162461bcd60e51b815260206004820152601960248201526000805160206144b3833981519152604482015290519081900360640190fd5b610f647f00000000000000000000000000000000000000000000000000000000000000008988888080602002602001604051908101604052809392919081815260200183836020028082843760009201919091525061327992505050565b91508682600184510381518110610f7757fe5b60200260200101511015610fbc5760405162461bcd60e51b815260040180806020018281038252602c815260200180614417602c913960400191505060405180910390fd5b61105a86866000818110610fcc57fe5b905060200201356001600160a01b0316336110407f00000000000000000000000000000000000000000000000000000000000000008a8a600081811061100e57fe5b905060200201356001600160a01b03168b8b600181811061102b57fe5b905060200201356001600160a01b03166131be565b8560008151811061104d57fe5b602002602001015161339d565b611099828787808060200260200160405190810160405280939291908181526020018383602002808284376000920191909152508992506134fa915050565b509695505050505050565b80428110156110e8576040805162461bcd60e51b815260206004820152601960248201526000805160206144b3833981519152604482015290519081900360640190fd5b7f00000000000000000000000000000000000000000000000000000000000000006001600160a01b03168585600081811061111f57fe5b905060200201356001600160a01b03166001600160a01b031614611178576040805162461bcd60e51b815260206004820152601e6024820152600080516020614443833981519152604482015290519081900360640190fd5b60003490507f00000000000000000000000000000000000000000000000000000000000000006001600160a01b031663d0e30db0826040518263ffffffff1660e01b81526004016000604051808303818588803b1580156111d857600080fd5b505af11580156111ec573d6000803e3d6000fd5b50505050507f00000000000000000000000000000000000000000000000000000000000000006001600160a01b031663a9059cbb61126e7f00000000000000000000000000000000000000000000000000000000000000008989600081811061125157fe5b905060200201356001600160a01b03168a8a600181811061102b57fe5b836040518363ffffffff1660e01b815260040180836001600160a01b03166001600160a01b0316815260200182815260200192505050602060405180830381600087803b1580156112be57600080fd5b505af11580156112d2573d6000803e3d6000fd5b505050506040513d60208110156112e857600080fd5b50516112f057fe5b60008686600019810181811061130257fe5b905060200201356001600160a01b03166001600160a01b03166370a08231866040518263ffffffff1660e01b815260040180826001600160a01b03166001600160a01b0316815260200191505060206040518083038186803b15801561136757600080fd5b505afa15801561137b573d6000803e3d6000fd5b505050506040513d602081101561139157600080fd5b505160408051602089810282810182019093528982529293506113d39290918a918a9182918501908490808284376000920191909152508992506136aa915050565b8761148582898960001981018181106113e857fe5b905060200201356001600160a01b03166001600160a01b03166370a08231896040518263ffffffff1660e01b815260040180826001600160a01b03166001600160a01b0316815260200191505060206040518083038186803b15801561144d57600080fd5b505afa158015611461573d6000803e3d6000fd5b505050506040513d602081101561147757600080fd5b50519063ffffffff61394b16565b10156114c25760405162461bcd60e51b815260040180806020018281038252602c815260200180614417602c913960400191505060405180910390fd5b5050505050505050565b8042811015611510576040805162461bcd60e51b815260206004820152601960248201526000805160206144b3833981519152604482015290519081900360640190fd5b6115688585600081811061152057fe5b905060200201356001600160a01b0316336115627f00000000000000000000000000000000000000000000000000000000000000008989600081811061125157fe5b8a61339d565b60008585600019810181811061157a57fe5b905060200201356001600160a01b03166001600160a01b03166370a08231856040518263ffffffff1660e01b815260040180826001600160a01b03166001600160a01b0316815260200191505060206040518083038186803b1580156115df57600080fd5b505afa1580156115f3573d6000803e3d6000fd5b505050506040513d602081101561160957600080fd5b5051604080516020888102828101820190935288825292935061164b9290918991899182918501908490808284376000920191909152508892506136aa915050565b86611485828888600019810181811061166057fe5b905060200201356001600160a01b03166001600160a01b03166370a08231886040518263ffffffff1660e01b815260040180826001600160a01b03166001600160a01b0316815260200191505060206040518083038186803b15801561144d57600080fd5b6060814281101561170b576040805162461bcd60e51b815260206004820152601960248201526000805160206144b3833981519152604482015290519081900360640190fd5b6001600160a01b037f0000000000000000000000000000000000000000000000000000000000000000168686600019810181811061174557fe5b905060200201356001600160a01b03166001600160a01b03161461179e576040805162461bcd60e51b815260206004820152601e6024820152600080516020614443833981519152604482015290519081900360640190fd5b6117fc7f00000000000000000000000000000000000000000000000000000000000000008988888080602002602001604051908101604052809392919081815260200183836020028082843760009201919091525061327992505050565b9150868260018451038151811061180f57fe5b602002602001015110156118545760405162461bcd60e51b815260040180806020018281038252602c815260200180614417602c913960400191505060405180910390fd5b61186486866000818110610fcc57fe5b6118a3828787808060200260200160405190810160405280939291908181526020018383602002808284376000920191909152503092506134fa915050565b7f00000000000000000000000000000000000000000000000000000000000000006001600160a01b0316632e1a7d4d836001855103815181106118e257fe5b60200260200101516040518263ffffffff1660e01b815260040180828152602001915050600060405180830381600087803b15801561192057600080fd5b505af1158015611934573d6000803e3d6000fd5b50505050611099848360018551038151811061194c57fe5b602002602001015161398d565b6000806119a77f00000000000000000000000000000000000000000000000000000000000000008d7f00000000000000000000000000000000000000000000000000000000000000006131be565b90506000866119b6578b6119ba565b6000195b6040805163d505accf60e01b815233600482015230602482015260448101839052606481018b905260ff8916608482015260a4810188905260c4810187905290519192506001600160a01b0384169163d505accf9160e48082019260009290919082900301818387803b158015611a3057600080fd5b505af1158015611a44573d6000803e3d6000fd5b50505050611a568d8d8d8d8d8d612273565b9d9c50505050505050505050505050565b60608142811015611aad576040805162461bcd60e51b815260206004820152601960248201526000805160206144b3833981519152604482015290519081900360640190fd5b7f00000000000000000000000000000000000000000000000000000000000000006001600160a01b031686866000818110611ae457fe5b905060200201356001600160a01b03166001600160a01b031614611b3d576040805162461bcd60e51b815260206004820152601e6024820152600080516020614443833981519152604482015290519081900360640190fd5b611b9b7f00000000000000000000000000000000000000000000000000000000000000008888888080602002602001604051908101604052809392919081815260200183836020028082843760009201919091525061308492505050565b91503482600081518110611bab57fe5b60200260200101511115611bf05760405162461bcd60e51b81526004018080602001828103825260288152602001806143086028913960400191505060405180910390fd5b7f00000000000000000000000000000000000000000000000000000000000000006001600160a01b031663d0e30db083600081518110611c2c57fe5b60200260200101516040518263ffffffff1660e01b81526004016000604051808303818588803b158015611c5f57600080fd5b505af1158015611c73573d6000803e3d6000fd5b50505050507f00000000000000000000000000000000000000000000000000000000000000006001600160a01b031663a9059cbb611cd87f00000000000000000000000000000000000000000000000000000000000000008989600081811061125157fe5b84600081518110611ce557fe5b60200260200101516040518363ffffffff1660e01b815260040180836001600160a01b03166001600160a01b0316815260200182815260200192505050602060405180830381600087803b158015611d3c57600080fd5b505af1158015611d50573d6000803e3d6000fd5b505050506040513d6020811015611d6657600080fd5b5051611d6e57fe5b611dad828787808060200260200160405190810160405280939291908181526020018383602002808284376000920191909152508992506134fa915050565b81600081518110611dba57fe5b6020026020010151341115611de957611de93383600081518110611dda57fe5b6020026020010151340361398d565b5095945050505050565b6000610c74848484613a80565b60608142811015611e46576040805162461bcd60e51b815260206004820152601960248201526000805160206144b3833981519152604482015290519081900360640190fd5b611ea47f00000000000000000000000000000000000000000000000000000000000000008988888080602002602001604051908101604052809392919081815260200183836020028082843760009201919091525061308492505050565b91508682600081518110611eb457fe5b60200260200101511115610fbc5760405162461bcd60e51b81526004018080602001828103825260288152602001806143086028913960400191505060405180910390fd5b7f000000000000000000000000000000000000000000000000000000000000000081565b60608142811015611f63576040805162461bcd60e51b815260206004820152601960248201526000805160206144b3833981519152604482015290519081900360640190fd5b7f00000000000000000000000000000000000000000000000000000000000000006001600160a01b031686866000818110611f9a57fe5b905060200201356001600160a01b03166001600160a01b031614611ff3576040805162461bcd60e51b815260206004820152601e6024820152600080516020614443833981519152604482015290519081900360640190fd5b6120517f00000000000000000000000000000000000000000000000000000000000000003488888080602002602001604051908101604052809392919081815260200183836020028082843760009201919091525061327992505050565b9150868260018451038151811061206457fe5b602002602001015110156120a95760405162461bcd60e51b815260040180806020018281038252602c815260200180614417602c913960400191505060405180910390fd5b7f00000000000000000000000000000000000000000000000000000000000000006001600160a01b031663d0e30db0836000815181106120e557fe5b60200260200101516040518263ffffffff1660e01b81526004016000604051808303818588803b15801561211857600080fd5b505af115801561212c573d6000803e3d6000fd5b50505050507f00000000000000000000000000000000000000000000000000000000000000006001600160a01b031663a9059cbb6121917f00000000000000000000000000000000000000000000000000000000000000008989600081811061125157fe5b8460008151811061219e57fe5b60200260200101516040518363ffffffff1660e01b815260040180836001600160a01b03166001600160a01b0316815260200182815260200192505050602060405180830381600087803b1580156121f557600080fd5b505af1158015612209573d6000803e3d6000fd5b505050506040513d602081101561221f57600080fd5b505161222757fe5b611de9828787808060200260200160405190810160405280939291908181526020018383602002808284376000920191909152508992506134fa915050565b6000610c74848484613b70565b600081428110156122b9576040805162461bcd60e51b815260206004820152601960248201526000805160206144b3833981519152604482015290519081900360640190fd5b6122e8887f000000000000000000000000000000000000000000000000000000000000000089898930896123f4565b604080516370a0823160e01b8152306004820152905191945061236c92508a9187916001600160a01b038416916370a0823191602480820192602092909190829003018186803b15801561233b57600080fd5b505afa15801561234f573d6000803e3d6000fd5b505050506040513d602081101561236557600080fd5b5051613c1c565b7f00000000000000000000000000000000000000000000000000000000000000006001600160a01b0316632e1a7d4d836040518263ffffffff1660e01b815260040180828152602001915050600060405180830381600087803b1580156123d257600080fd5b505af11580156123e6573d6000803e3d6000fd5b50505050611099848361398d565b600080824281101561243b576040805162461bcd60e51b815260206004820152601960248201526000805160206144b3833981519152604482015290519081900360640190fd5b60006124687f00000000000000000000000000000000000000000000000000000000000000008c8c6131be565b604080516323b872dd60e01b81523360048201526001600160a01b03831660248201819052604482018d9052915192935090916323b872dd916064808201926020929091908290030181600087803b1580156124c357600080fd5b505af11580156124d7573d6000803e3d6000fd5b505050506040513d60208110156124ed57600080fd5b50506040805163226bf2d160e21b81526001600160a01b03888116600483015282516000938493928616926389afcb44926024808301939282900301818787803b15801561253a57600080fd5b505af115801561254e573d6000803e3d6000fd5b505050506040513d604081101561256457600080fd5b5080516020909101519092509050600061257e8e8e613d86565b509050806001600160a01b03168e6001600160a01b0316146125a15781836125a4565b82825b90975095508a8710156125e85760405162461bcd60e51b81526004018080602001828103825260278152602001806143f06027913960400191505060405180910390fd5b898610156126275760405162461bcd60e51b81526004018080602001828103825260278152602001806143c96027913960400191505060405180910390fd5b505050505097509795505050505050565b7f000000000000000000000000000000000000000000000000000000000000000081565b6060610ca97f00000000000000000000000000000000000000000000000000000000000000008484613279565b80428110156126cd576040805162461bcd60e51b815260206004820152601960248201526000805160206144b3833981519152604482015290519081900360640190fd5b6001600160a01b037f0000000000000000000000000000000000000000000000000000000000000000168585600019810181811061270757fe5b905060200201356001600160a01b03166001600160a01b031614612760576040805162461bcd60e51b815260206004820152601e6024820152600080516020614443833981519152604482015290519081900360640190fd5b6127708585600081811061152057fe5b6127ae8585808060200260200160405190810160405280939291908181526020018383602002808284376000920191909152503092506136aa915050565b604080516370a0823160e01b815230600482015290516000916001600160a01b037f000000000000000000000000000000000000000000000000000000000000000016916370a0823191602480820192602092909190829003018186803b15801561281857600080fd5b505afa15801561282c573d6000803e3d6000fd5b505050506040513d602081101561284257600080fd5b50519050868110156128855760405162461bcd60e51b815260040180806020018281038252602c815260200180614417602c913960400191505060405180910390fd5b7f00000000000000000000000000000000000000000000000000000000000000006001600160a01b0316632e1a7d4d826040518263ffffffff1660e01b815260040180828152602001915050600060405180830381600087803b1580156128eb57600080fd5b505af11580156128ff573d6000803e3d6000fd5b505050506114c2848261398d565b60608142811015612953576040805162461bcd60e51b815260206004820152601960248201526000805160206144b3833981519152604482015290519081900360640190fd5b6001600160a01b037f0000000000000000000000000000000000000000000000000000000000000000168686600019810181811061298d57fe5b905060200201356001600160a01b03166001600160a01b0316146129e6576040805162461bcd60e51b815260206004820152601e6024820152600080516020614443833981519152604482015290519081900360640190fd5b612a447f00000000000000000000000000000000000000000000000000000000000000008988888080602002602001604051908101604052809392919081815260200183836020028082843760009201919091525061308492505050565b91508682600081518110612a5457fe5b602002602001015111156118545760405162461bcd60e51b81526004018080602001828103825260288152602001806143086028913960400191505060405180910390fd5b6000808242811015612ae0576040805162461bcd60e51b815260206004820152601960248201526000805160206144b3833981519152604482015290519081900360640190fd5b612b0f897f00000000000000000000000000000000000000000000000000000000000000008a8a8a308a6123f4565b9093509150612b1f898685613c1c565b7f00000000000000000000000000000000000000000000000000000000000000006001600160a01b0316632e1a7d4d836040518263ffffffff1660e01b815260040180828152602001915050600060405180830381600087803b158015612b8557600080fd5b505af1158015612b99573d6000803e3d6000fd5b50505050612ba7858361398d565b50965096945050505050565b60008060008342811015612bfc576040805162461bcd60e51b815260206004820152601960248201526000805160206144b3833981519152604482015290519081900360640190fd5b612c0a8c8c8c8c8c8c613e64565b90945092506000612c3c7f00000000000000000000000000000000000000000000000000000000000000008e8e6131be565b9050612c4a8d33838861339d565b612c568c33838761339d565b806001600160a01b0316636a627842886040518263ffffffff1660e01b815260040180826001600160a01b03166001600160a01b03168152602001915050602060405180830381600087803b158015612cae57600080fd5b505af1158015612cc2573d6000803e3d6000fd5b505050506040513d6020811015612cd857600080fd5b5051949d939c50939a509198505050505050505050565b60008060008342811015612d38576040805162461bcd60e51b815260206004820152601960248201526000805160206144b3833981519152604482015290519081900360640190fd5b612d668a7f00000000000000000000000000000000000000000000000000000000000000008b348c8c613e64565b90945092506000612db87f00000000000000000000000000000000000000000000000000000000000000008c7f00000000000000000000000000000000000000000000000000000000000000006131be565b9050612dc68b33838861339d565b7f00000000000000000000000000000000000000000000000000000000000000006001600160a01b031663d0e30db0856040518263ffffffff1660e01b81526004016000604051808303818588803b158015612e2157600080fd5b505af1158015612e35573d6000803e3d6000fd5b50505050507f00000000000000000000000000000000000000000000000000000000000000006001600160a01b031663a9059cbb82866040518363ffffffff1660e01b815260040180836001600160a01b03166001600160a01b0316815260200182815260200192505050602060405180830381600087803b158015612eba57600080fd5b505af1158015612ece573d6000803e3d6000fd5b505050506040513d6020811015612ee457600080fd5b5051612eec57fe5b806001600160a01b0316636a627842886040518263ffffffff1660e01b815260040180826001600160a01b03166001600160a01b03168152602001915050602060405180830381600087803b158015612f4457600080fd5b505af1158015612f58573d6000803e3d6000fd5b505050506040513d6020811015612f6e57600080fd5b5051925034841015612f8657612f863385340361398d565b505096509650969350505050565b6000808411612fd45760405162461bcd60e51b815260040180806020018281038252602c815260200180614356602c913960400191505060405180910390fd5b600083118015612fe45750600082115b61301f5760405162461bcd60e51b81526004018080602001828103825260298152602001806144f76029913960400191505060405180910390fd5b6000613033856103e563ffffffff6140d816565b90506000613047828563ffffffff6140d816565b9050600061306d83613061886103e863ffffffff6140d816565b9063ffffffff61413116565b905080828161307857fe5b04979650505050505050565b60606002825110156130cb576040805162461bcd60e51b815260206004820152601f60248201526000805160206142e8833981519152604482015290519081900360640190fd5b81516001600160401b03811180156130e257600080fd5b5060405190808252806020026020018201604052801561310c578160200160208202803683370190505b509050828160018351038151811061312057fe5b60209081029190910101528151600019015b80156131b65760008061316f8786600186038151811061314e57fe5b602002602001015187868151811061316257fe5b6020026020010151614189565b9150915061319184848151811061318257fe5b60200260200101518383613a80565b8460018503815181106131a057fe5b6020908102919091010152505060001901613132565b509392505050565b60008060006131cd8585613d86565b604080516001600160601b0319606094851b811660208084019190915293851b81166034830152825160288184030181526048830184528051908501206001600160f81b031960688401529a90941b9093166069840152607d8301989098527fe2e87433120e32c4738a7d8f3271f3d872cbe16241d67537139158d90bac61d3609d808401919091528851808403909101815260bd909201909752805196019590952095945050505050565b60606002825110156132c0576040805162461bcd60e51b815260206004820152601f60248201526000805160206142e8833981519152604482015290519081900360640190fd5b81516001600160401b03811180156132d757600080fd5b50604051908082528060200260200182016040528015613301578160200160208202803683370190505b509050828160008151811061331257fe5b60200260200101818152505060005b60018351038110156131b6576000806133578786858151811061334057fe5b602002602001015187866001018151811061316257fe5b9150915061337984848151811061336a57fe5b60200260200101518383612f94565b84846001018151811061338857fe5b60209081029190910101525050600101613321565b604080516001600160a01b0385811660248301528481166044830152606480830185905283518084039091018152608490920183526020820180516001600160e01b03166323b872dd60e01b17815292518251600094606094938a169392918291908083835b602083106134225780518252601f199092019160209182019101613403565b6001836020036101000a0380198251168184511680821785525050505050509050019150506000604051808303816000865af19150503d8060008114613484576040519150601f19603f3d011682016040523d82523d6000602084013e613489565b606091505b50915091508180156134b75750805115806134b757508080602001905160208110156134b457600080fd5b50515b6134f25760405162461bcd60e51b81526004018080602001828103825260248152602001806144d36024913960400191505060405180910390fd5b505050505050565b60005b60018351038110156136a45760008084838151811061351857fe5b602002602001015185846001018151811061352f57fe5b60200260200101519150915060006135478383613d86565b509050600087856001018151811061355b57fe5b60200260200101519050600080836001600160a01b0316866001600160a01b0316146135895782600061358d565b6000835b91509150600060028a510388106135a457886135e5565b6135e57f0000000000000000000000000000000000000000000000000000000000000000878c8b600201815181106135d857fe5b60200260200101516131be565b90506136127f000000000000000000000000000000000000000000000000000000000000000088886131be565b6001600160a01b0316636d9a640a8484846040518463ffffffff1660e01b815260040180848152602001838152602001826001600160a01b03166001600160a01b031681526020019350505050600060405180830381600087803b15801561367957600080fd5b505af115801561368d573d6000803e3d6000fd5b5050600190990198506134fd975050505050505050565b50505050565b60005b6001835103811015613946576000808483815181106136c857fe5b60200260200101518584600101815181106136df57fe5b60200260200101519150915060006136f78383613d86565b50905060006137277f000000000000000000000000000000000000000000000000000000000000000085856131be565b9050600080600080846001600160a01b0316630902f1ac6040518163ffffffff1660e01b815260040160606040518083038186803b15801561376857600080fd5b505afa15801561377c573d6000803e3d6000fd5b505050506040513d606081101561379257600080fd5b5080516020909101516001600160701b0391821693501690506000806001600160a01b038a8116908916146137c85782846137cb565b83835b91509150613829828b6001600160a01b03166370a082318a6040518263ffffffff1660e01b815260040180826001600160a01b03166001600160a01b0316815260200191505060206040518083038186803b15801561144d57600080fd5b9550613836868383612f94565b945050505050600080856001600160a01b0316886001600160a01b03161461386057826000613864565b6000835b91509150600060028c51038a1061387b578a6138af565b6138af7f0000000000000000000000000000000000000000000000000000000000000000898e8d600201815181106135d857fe5b9050856001600160a01b0316636d9a640a8484846040518463ffffffff1660e01b815260040180848152602001838152602001826001600160a01b03166001600160a01b031681526020019350505050600060405180830381600087803b15801561391957600080fd5b505af115801561392d573d6000803e3d6000fd5b50506001909b019a506136ad9950505050505050505050565b505050565b6000610ca983836040518060400160405280601e81526020017f536166654d6174683a207375627472616374696f6e206f766572666c6f770000815250614250565b604080516000808252602082019092526001600160a01b0384169083906040518082805190602001908083835b602083106139d95780518252601f1990920191602091820191016139ba565b6001836020036101000a03801982511681845116808217855250505050505090500191505060006040518083038185875af1925050503d8060008114613a3b576040519150601f19603f3d011682016040523d82523d6000602084013e613a40565b606091505b50509050806139465760405162461bcd60e51b81526004018080602001828103825260238152602001806144636023913960400191505060405180910390fd5b6000808411613ac05760405162461bcd60e51b815260040180806020018281038252602d815260200180614486602d913960400191505060405180910390fd5b600083118015613ad05750600082115b613b0b5760405162461bcd60e51b81526004018080602001828103825260298152602001806144f76029913960400191505060405180910390fd5b6000613b2f6103e8613b23868863ffffffff6140d816565b9063ffffffff6140d816565b90506000613b496103e5613b23868963ffffffff61394b16565b9050613b666001828481613b5957fe5b049063ffffffff61413116565b9695505050505050565b6000808411613bb05760405162461bcd60e51b81526004018080602001828103825260268152602001806143826026913960400191505060405180910390fd5b600083118015613bc05750600082115b613bfb5760405162461bcd60e51b81526004018080602001828103825260298152602001806144f76029913960400191505060405180910390fd5b82613c0c858463ffffffff6140d816565b81613c1357fe5b04949350505050565b604080516001600160a01b038481166024830152604480830185905283518084039091018152606490920183526020820180516001600160e01b031663a9059cbb60e01b178152925182516000946060949389169392918291908083835b60208310613c995780518252601f199092019160209182019101613c7a565b6001836020036101000a0380198251168184511680821785525050505050509050019150506000604051808303816000865af19150503d8060008114613cfb576040519150601f19603f3d011682016040523d82523d6000602084013e613d00565b606091505b5091509150818015613d2e575080511580613d2e5750808060200190516020811015613d2b57600080fd5b50515b613d7f576040805162461bcd60e51b815260206004820152601f60248201527f5472616e7366657248656c7065723a205452414e534645525f4641494c454400604482015290519081900360640190fd5b5050505050565b600080826001600160a01b0316846001600160a01b03161415613dda5760405162461bcd60e51b81526004018080602001828103825260268152602001806143306026913960400191505060405180910390fd5b826001600160a01b0316846001600160a01b031610613dfa578284613dfd565b83835b90925090506001600160a01b038216613e5d576040805162461bcd60e51b815260206004820152601f60248201527f42616b657279537761704c6962726172793a205a45524f5f4144445245535300604482015290519081900360640190fd5b9250929050565b6040805163e6a4390560e01b81526001600160a01b03888116600483015287811660248301529151600092839283927f00000000000000000000000000000000000000000000000000000000000000009092169163e6a4390591604480820192602092909190829003018186803b158015613ede57600080fd5b505afa158015613ef2573d6000803e3d6000fd5b505050506040513d6020811015613f0857600080fd5b50516001600160a01b03161415613fbb57604080516364e329cb60e11b81526001600160a01b038a81166004830152898116602483015291517f00000000000000000000000000000000000000000000000000000000000000009092169163c9c65396916044808201926020929091908290030181600087803b158015613f8e57600080fd5b505af1158015613fa2573d6000803e3d6000fd5b505050506040513d6020811015613fb857600080fd5b50505b600080613fe97f00000000000000000000000000000000000000000000000000000000000000008b8b614189565b91509150816000148015613ffb575080155b1561400b578793508692506140cb565b6000614018898484613b70565b905087811161406b57858110156140605760405162461bcd60e51b81526004018080602001828103825260278152602001806143c96027913960400191505060405180910390fd5b8894509250826140c9565b6000614078898486613b70565b90508981111561408457fe5b878110156140c35760405162461bcd60e51b81526004018080602001828103825260278152602001806143f06027913960400191505060405180910390fd5b94508793505b505b5050965096945050505050565b6000826140e757506000610cac565b828202828482816140f457fe5b0414610ca95760405162461bcd60e51b81526004018080602001828103825260218152602001806143a86021913960400191505060405180910390fd5b600082820183811015610ca9576040805162461bcd60e51b815260206004820152601b60248201527a536166654d6174683a206164646974696f6e206f766572666c6f7760281b604482015290519081900360640190fd5b60008060006141988585613d86565b5090506000806141a98888886131be565b6001600160a01b0316630902f1ac6040518163ffffffff1660e01b815260040160606040518083038186803b1580156141e157600080fd5b505afa1580156141f5573d6000803e3d6000fd5b505050506040513d606081101561420b57600080fd5b5080516020909101516001600160701b0391821693501690506001600160a01b038781169084161461423e578082614241565b81815b90999098509650505050505050565b600081848411156142df5760405162461bcd60e51b81526004018080602001828103825283818151815260200191508051906020019080838360005b838110156142a457818101518382015260200161428c565b50505050905090810190601f1680156142d15780820380516001836020036101000a031916815260200191505b509250505060405180910390fd5b50505090039056fe42616b657279537761704c6962726172793a20494e56414c49445f504154480042616b65727953776170526f757465723a204558434553534956455f494e5055545f414d4f554e5442616b657279537761704c6962726172793a204944454e544943414c5f41444452455353455342616b657279537761704c6962726172793a20494e53554646494349454e545f494e5055545f414d4f554e5442616b657279537761704c6962726172793a20494e53554646494349454e545f414d4f554e54536166654d6174683a206d756c7469706c69636174696f6e206f766572666c6f7742616b65727953776170526f757465723a20494e53554646494349454e545f425f414d4f554e5442616b65727953776170526f757465723a20494e53554646494349454e545f415f414d4f554e5442616b65727953776170526f757465723a20494e53554646494349454e545f4f55545055545f414d4f554e5442616b65727953776170526f757465723a20494e56414c49445f5041544800005472616e7366657248656c7065723a20424e425f5452414e534645525f4641494c454442616b657279537761704c6962726172793a20494e53554646494349454e545f4f55545055545f414d4f554e5442616b65727953776170526f757465723a2045585049524544000000000000005472616e7366657248656c7065723a205452414e534645525f46524f4d5f4641494c454442616b657279537761704c6962726172793a20494e53554646494349454e545f4c4951554944495459a26469706673582212206aea3747d7ed4b6ab5b2b892749ed1f52b17a0a78eb4604e0e7e57167fc74d7364736f6c63430006060033",
  "immutableReferences": {
    "3506": [
      {
        "length": 32,
        "start": 3203
      },
      {
        "length": 32,
        "start": 3260
      },
      {
        "length": 32,
        "start": 3510
      },
      {
        "length": 32,
        "start": 3851
      },
      {
        "length": 32,
        "start": 4066
      },
      {
        "length": 32,
        "start": 4645
      },
      {
        "length": 32,
        "start": 5430
      },
      {
        "length": 32,
        "start": 6051
      },
      {
        "length": 32,
        "start": 6497
      },
      {
        "length": 32,
        "start": 6978
      },
      {
        "length": 32,
        "start": 7340
      },
      {
        "length": 32,
        "start": 7755
      },
      {
        "length": 32,
        "start": 8184
      },
      {
        "length": 32,
        "start": 8549
      },
      {
        "length": 32,
        "start": 9282
      },
      {
        "length": 32,
        "start": 9786
      },
      {
        "length": 32,
        "start": 9827
      },
      {
        "length": 32,
        "start": 10731
      },
      {
        "length": 32,
        "start": 11286
      },
      {
        "length": 32,
        "start": 11634
      },
      {
        "length": 32,
        "start": 13737
      },
      {
        "length": 32,
        "start": 13804
      },
      {
        "length": 32,
        "start": 14081
      },
      {
        "length": 32,
        "start": 14464
      },
      {
        "length": 32,
        "start": 16021
      },
      {
        "length": 32,
        "start": 16195
      },
      {
        "length": 32,
        "start": 16323
      }
    ],
    "3509": [
      {
        "length": 32,
        "start": 303
      },
      {
        "length": 32,
        "start": 3544
      },
      {
        "length": 32,
        "start": 4330
      },
      {
        "length": 32,
        "start": 4479
      },
      {
        "length": 32,
        "start": 4595
      },
      {
        "length": 32,
        "start": 5909
      },
      {
        "length": 32,
        "start": 6309
      },
      {
        "length": 32,
        "start": 6531
      },
      {
        "length": 32,
        "start": 6831
      },
      {
        "length": 32,
        "start": 7154
      },
      {
        "length": 32,
        "start": 7290
      },
      {
        "length": 32,
        "start": 7931
      },
      {
        "length": 32,
        "start": 8037
      },
      {
        "length": 32,
        "start": 8363
      },
      {
        "length": 32,
        "start": 8499
      },
      {
        "length": 32,
        "start": 8895
      },
      {
        "length": 32,
        "start": 9070
      },
      {
        "length": 32,
        "start": 9943
      },
      {
        "length": 32,
        "start": 10193
      },
      {
        "length": 32,
        "start": 10375
      },
      {
        "length": 32,
        "start": 10589
      },
      {
        "length": 32,
        "start": 10982
      },
      {
        "length": 32,
        "start": 11041
      },
      {
        "length": 32,
        "start": 11582
      },
      {
        "length": 32,
        "start": 11668
      },
      {
        "length": 32,
        "start": 11720
      },
      {
        "length": 32,
        "start": 11836
      }
    ]
  },
  "source": "pragma solidity =0.6.6;\n\nimport '@BakeryProject/bakery-swap-core/contracts/interfaces/IBakerySwapFactory.sol';\nimport '@BakeryProject/bakery-swap-lib/contracts/utils/TransferHelper.sol';\n\nimport './interfaces/IBakerySwapRouter.sol';\nimport './libraries/BakerySwapLibrary.sol';\nimport '@BakeryProject/bakery-swap-lib/contracts/math/SafeMath.sol';\nimport '@BakeryProject/bakery-swap-lib/contracts/token/BEP20/IBEP20.sol';\nimport './interfaces/IWBNB.sol';\n\ncontract BakerySwapRouter is IBakerySwapRouter {\n    using SafeMath for uint256;\n    address public immutable override factory;\n    address public immutable override WBNB;\n\n    modifier ensure(uint256 deadline) {\n        require(deadline >= block.timestamp, 'BakerySwapRouter: EXPIRED');\n        _;\n    }\n\n    constructor(address _factory, address _WBNB) public {\n        factory = _factory;\n        WBNB = _WBNB;\n    }\n\n    receive() external payable {\n        assert(msg.sender == WBNB); // only accept BNB via fallback from the WBNB contract\n    }\n\n    // **** ADD LIQUIDITY ****\n    function _addLiquidity(\n        address tokenA,\n        address tokenB,\n        uint256 amountADesired,\n        uint256 amountBDesired,\n        uint256 amountAMin,\n        uint256 amountBMin\n    ) internal virtual returns (uint256 amountA, uint256 amountB) {\n        // create the pair if it doesn't exist yet\n        if (IBakerySwapFactory(factory).getPair(tokenA, tokenB) == address(0)) {\n            IBakerySwapFactory(factory).createPair(tokenA, tokenB);\n        }\n        (uint256 reserveA, uint256 reserveB) = BakerySwapLibrary.getReserves(factory, tokenA, tokenB);\n        if (reserveA == 0 && reserveB == 0) {\n            (amountA, amountB) = (amountADesired, amountBDesired);\n        } else {\n            uint256 amountBOptimal = BakerySwapLibrary.quote(amountADesired, reserveA, reserveB);\n            if (amountBOptimal <= amountBDesired) {\n                require(amountBOptimal >= amountBMin, 'BakerySwapRouter: INSUFFICIENT_B_AMOUNT');\n                (amountA, amountB) = (amountADesired, amountBOptimal);\n            } else {\n                uint256 amountAOptimal = BakerySwapLibrary.quote(amountBDesired, reserveB, reserveA);\n                assert(amountAOptimal <= amountADesired);\n                require(amountAOptimal >= amountAMin, 'BakerySwapRouter: INSUFFICIENT_A_AMOUNT');\n                (amountA, amountB) = (amountAOptimal, amountBDesired);\n            }\n        }\n    }\n\n    function addLiquidity(\n        address tokenA,\n        address tokenB,\n        uint256 amountADesired,\n        uint256 amountBDesired,\n        uint256 amountAMin,\n        uint256 amountBMin,\n        address to,\n        uint256 deadline\n    )\n        external\n        virtual\n        override\n        ensure(deadline)\n        returns (\n            uint256 amountA,\n            uint256 amountB,\n            uint256 liquidity\n        )\n    {\n        (amountA, amountB) = _addLiquidity(tokenA, tokenB, amountADesired, amountBDesired, amountAMin, amountBMin);\n        address pair = BakerySwapLibrary.pairFor(factory, tokenA, tokenB);\n        TransferHelper.safeTransferFrom(tokenA, msg.sender, pair, amountA);\n        TransferHelper.safeTransferFrom(tokenB, msg.sender, pair, amountB);\n        liquidity = IBakerySwapPair(pair).mint(to);\n    }\n\n    function addLiquidityBNB(\n        address token,\n        uint256 amountTokenDesired,\n        uint256 amountTokenMin,\n        uint256 amountBNBMin,\n        address to,\n        uint256 deadline\n    )\n        external\n        virtual\n        override\n        payable\n        ensure(deadline)\n        returns (\n            uint256 amountToken,\n            uint256 amountBNB,\n            uint256 liquidity\n        )\n    {\n        (amountToken, amountBNB) = _addLiquidity(\n            token,\n            WBNB,\n            amountTokenDesired,\n            msg.value,\n            amountTokenMin,\n            amountBNBMin\n        );\n        address pair = BakerySwapLibrary.pairFor(factory, token, WBNB);\n        TransferHelper.safeTransferFrom(token, msg.sender, pair, amountToken);\n        IWBNB(WBNB).deposit{value: amountBNB}();\n        assert(IWBNB(WBNB).transfer(pair, amountBNB));\n        liquidity = IBakerySwapPair(pair).mint(to);\n        // refund dust bnb, if any\n        if (msg.value > amountBNB) TransferHelper.safeTransferBNB(msg.sender, msg.value - amountBNB);\n    }\n\n    // **** REMOVE LIQUIDITY ****\n    function removeLiquidity(\n        address tokenA,\n        address tokenB,\n        uint256 liquidity,\n        uint256 amountAMin,\n        uint256 amountBMin,\n        address to,\n        uint256 deadline\n    ) public virtual override ensure(deadline) returns (uint256 amountA, uint256 amountB) {\n        address pair = BakerySwapLibrary.pairFor(factory, tokenA, tokenB);\n        IBakerySwapPair(pair).transferFrom(msg.sender, pair, liquidity); // send liquidity to pair\n        (uint256 amount0, uint256 amount1) = IBakerySwapPair(pair).burn(to);\n        (address token0, ) = BakerySwapLibrary.sortTokens(tokenA, tokenB);\n        (amountA, amountB) = tokenA == token0 ? (amount0, amount1) : (amount1, amount0);\n        require(amountA >= amountAMin, 'BakerySwapRouter: INSUFFICIENT_A_AMOUNT');\n        require(amountB >= amountBMin, 'BakerySwapRouter: INSUFFICIENT_B_AMOUNT');\n    }\n\n    function removeLiquidityBNB(\n        address token,\n        uint256 liquidity,\n        uint256 amountTokenMin,\n        uint256 amountBNBMin,\n        address to,\n        uint256 deadline\n    ) public virtual override ensure(deadline) returns (uint256 amountToken, uint256 amountBNB) {\n        (amountToken, amountBNB) = removeLiquidity(\n            token,\n            WBNB,\n            liquidity,\n            amountTokenMin,\n            amountBNBMin,\n            address(this),\n            deadline\n        );\n        TransferHelper.safeTransfer(token, to, amountToken);\n        IWBNB(WBNB).withdraw(amountBNB);\n        TransferHelper.safeTransferBNB(to, amountBNB);\n    }\n\n    function removeLiquidityWithPermit(\n        address tokenA,\n        address tokenB,\n        uint256 liquidity,\n        uint256 amountAMin,\n        uint256 amountBMin,\n        address to,\n        uint256 deadline,\n        bool approveMax,\n        uint8 v,\n        bytes32 r,\n        bytes32 s\n    ) external virtual override returns (uint256 amountA, uint256 amountB) {\n        address pair = BakerySwapLibrary.pairFor(factory, tokenA, tokenB);\n        uint256 value = approveMax ? uint256(-1) : liquidity;\n        IBakerySwapPair(pair).permit(msg.sender, address(this), value, deadline, v, r, s);\n        (amountA, amountB) = removeLiquidity(tokenA, tokenB, liquidity, amountAMin, amountBMin, to, deadline);\n    }\n\n    function removeLiquidityBNBWithPermit(\n        address token,\n        uint256 liquidity,\n        uint256 amountTokenMin,\n        uint256 amountBNBMin,\n        address to,\n        uint256 deadline,\n        bool approveMax,\n        uint8 v,\n        bytes32 r,\n        bytes32 s\n    ) external virtual override returns (uint256 amountToken, uint256 amountBNB) {\n        address pair = BakerySwapLibrary.pairFor(factory, token, WBNB);\n        uint256 value = approveMax ? uint256(-1) : liquidity;\n        IBakerySwapPair(pair).permit(msg.sender, address(this), value, deadline, v, r, s);\n        (amountToken, amountBNB) = removeLiquidityBNB(token, liquidity, amountTokenMin, amountBNBMin, to, deadline);\n    }\n\n    // **** REMOVE LIQUIDITY (supporting fee-on-transfer tokens) ****\n    function removeLiquidityBNBSupportingFeeOnTransferTokens(\n        address token,\n        uint256 liquidity,\n        uint256 amountTokenMin,\n        uint256 amountBNBMin,\n        address to,\n        uint256 deadline\n    ) public virtual override ensure(deadline) returns (uint256 amountBNB) {\n        (, amountBNB) = removeLiquidity(token, WBNB, liquidity, amountTokenMin, amountBNBMin, address(this), deadline);\n        TransferHelper.safeTransfer(token, to, IBEP20(token).balanceOf(address(this)));\n        IWBNB(WBNB).withdraw(amountBNB);\n        TransferHelper.safeTransferBNB(to, amountBNB);\n    }\n\n    function removeLiquidityBNBWithPermitSupportingFeeOnTransferTokens(\n        address token,\n        uint256 liquidity,\n        uint256 amountTokenMin,\n        uint256 amountBNBMin,\n        address to,\n        uint256 deadline,\n        bool approveMax,\n        uint8 v,\n        bytes32 r,\n        bytes32 s\n    ) external virtual override returns (uint256 amountBNB) {\n        address pair = BakerySwapLibrary.pairFor(factory, token, WBNB);\n        uint256 value = approveMax ? uint256(-1) : liquidity;\n        IBakerySwapPair(pair).permit(msg.sender, address(this), value, deadline, v, r, s);\n        amountBNB = removeLiquidityBNBSupportingFeeOnTransferTokens(\n            token,\n            liquidity,\n            amountTokenMin,\n            amountBNBMin,\n            to,\n            deadline\n        );\n    }\n\n    // **** SWAP ****\n    // requires the initial amount to have already been sent to the first pair\n    function _swap(\n        uint256[] memory amounts,\n        address[] memory path,\n        address _to\n    ) internal virtual {\n        for (uint256 i; i < path.length - 1; i++) {\n            (address input, address output) = (path[i], path[i + 1]);\n            (address token0, ) = BakerySwapLibrary.sortTokens(input, output);\n            uint256 amountOut = amounts[i + 1];\n            (uint256 amount0Out, uint256 amount1Out) = input == token0\n                ? (uint256(0), amountOut)\n                : (amountOut, uint256(0));\n            address to = i < path.length - 2 ? BakerySwapLibrary.pairFor(factory, output, path[i + 2]) : _to;\n            IBakerySwapPair(BakerySwapLibrary.pairFor(factory, input, output)).swap(amount0Out, amount1Out, to);\n        }\n    }\n\n    function swapExactTokensForTokens(\n        uint256 amountIn,\n        uint256 amountOutMin,\n        address[] calldata path,\n        address to,\n        uint256 deadline\n    ) external virtual override ensure(deadline) returns (uint256[] memory amounts) {\n        amounts = BakerySwapLibrary.getAmountsOut(factory, amountIn, path);\n        require(amounts[amounts.length - 1] >= amountOutMin, 'BakerySwapRouter: INSUFFICIENT_OUTPUT_AMOUNT');\n        TransferHelper.safeTransferFrom(\n            path[0],\n            msg.sender,\n            BakerySwapLibrary.pairFor(factory, path[0], path[1]),\n            amounts[0]\n        );\n        _swap(amounts, path, to);\n    }\n\n    function swapTokensForExactTokens(\n        uint256 amountOut,\n        uint256 amountInMax,\n        address[] calldata path,\n        address to,\n        uint256 deadline\n    ) external virtual override ensure(deadline) returns (uint256[] memory amounts) {\n        amounts = BakerySwapLibrary.getAmountsIn(factory, amountOut, path);\n        require(amounts[0] <= amountInMax, 'BakerySwapRouter: EXCESSIVE_INPUT_AMOUNT');\n        TransferHelper.safeTransferFrom(\n            path[0],\n            msg.sender,\n            BakerySwapLibrary.pairFor(factory, path[0], path[1]),\n            amounts[0]\n        );\n        _swap(amounts, path, to);\n    }\n\n    function swapExactBNBForTokens(\n        uint256 amountOutMin,\n        address[] calldata path,\n        address to,\n        uint256 deadline\n    ) external virtual override payable ensure(deadline) returns (uint256[] memory amounts) {\n        require(path[0] == WBNB, 'BakerySwapRouter: INVALID_PATH');\n        amounts = BakerySwapLibrary.getAmountsOut(factory, msg.value, path);\n        require(amounts[amounts.length - 1] >= amountOutMin, 'BakerySwapRouter: INSUFFICIENT_OUTPUT_AMOUNT');\n        IWBNB(WBNB).deposit{value: amounts[0]}();\n        assert(IWBNB(WBNB).transfer(BakerySwapLibrary.pairFor(factory, path[0], path[1]), amounts[0]));\n        _swap(amounts, path, to);\n    }\n\n    function swapTokensForExactBNB(\n        uint256 amountOut,\n        uint256 amountInMax,\n        address[] calldata path,\n        address to,\n        uint256 deadline\n    ) external virtual override ensure(deadline) returns (uint256[] memory amounts) {\n        require(path[path.length - 1] == WBNB, 'BakerySwapRouter: INVALID_PATH');\n        amounts = BakerySwapLibrary.getAmountsIn(factory, amountOut, path);\n        require(amounts[0] <= amountInMax, 'BakerySwapRouter: EXCESSIVE_INPUT_AMOUNT');\n        TransferHelper.safeTransferFrom(\n            path[0],\n            msg.sender,\n            BakerySwapLibrary.pairFor(factory, path[0], path[1]),\n            amounts[0]\n        );\n        _swap(amounts, path, address(this));\n        IWBNB(WBNB).withdraw(amounts[amounts.length - 1]);\n        TransferHelper.safeTransferBNB(to, amounts[amounts.length - 1]);\n    }\n\n    function swapExactTokensForBNB(\n        uint256 amountIn,\n        uint256 amountOutMin,\n        address[] calldata path,\n        address to,\n        uint256 deadline\n    ) external virtual override ensure(deadline) returns (uint256[] memory amounts) {\n        require(path[path.length - 1] == WBNB, 'BakerySwapRouter: INVALID_PATH');\n        amounts = BakerySwapLibrary.getAmountsOut(factory, amountIn, path);\n        require(amounts[amounts.length - 1] >= amountOutMin, 'BakerySwapRouter: INSUFFICIENT_OUTPUT_AMOUNT');\n        TransferHelper.safeTransferFrom(\n            path[0],\n            msg.sender,\n            BakerySwapLibrary.pairFor(factory, path[0], path[1]),\n            amounts[0]\n        );\n        _swap(amounts, path, address(this));\n        IWBNB(WBNB).withdraw(amounts[amounts.length - 1]);\n        TransferHelper.safeTransferBNB(to, amounts[amounts.length - 1]);\n    }\n\n    function swapBNBForExactTokens(\n        uint256 amountOut,\n        address[] calldata path,\n        address to,\n        uint256 deadline\n    ) external virtual override payable ensure(deadline) returns (uint256[] memory amounts) {\n        require(path[0] == WBNB, 'BakerySwapRouter: INVALID_PATH');\n        amounts = BakerySwapLibrary.getAmountsIn(factory, amountOut, path);\n        require(amounts[0] <= msg.value, 'BakerySwapRouter: EXCESSIVE_INPUT_AMOUNT');\n        IWBNB(WBNB).deposit{value: amounts[0]}();\n        assert(IWBNB(WBNB).transfer(BakerySwapLibrary.pairFor(factory, path[0], path[1]), amounts[0]));\n        _swap(amounts, path, to);\n        // refund dust bnb, if any\n        if (msg.value > amounts[0]) TransferHelper.safeTransferBNB(msg.sender, msg.value - amounts[0]);\n    }\n\n    // **** SWAP (supporting fee-on-transfer tokens) ****\n    // requires the initial amount to have already been sent to the first pair\n    function _swapSupportingFeeOnTransferTokens(address[] memory path, address _to) internal virtual {\n        for (uint256 i; i < path.length - 1; i++) {\n            (address input, address output) = (path[i], path[i + 1]);\n            (address token0, ) = BakerySwapLibrary.sortTokens(input, output);\n            IBakerySwapPair pair = IBakerySwapPair(BakerySwapLibrary.pairFor(factory, input, output));\n            uint256 amountInput;\n            uint256 amountOutput;\n            {\n                // scope to avoid stack too deep errors\n                (uint256 reserve0, uint256 reserve1, ) = pair.getReserves();\n                (uint256 reserveInput, uint256 reserveOutput) = input == token0\n                    ? (reserve0, reserve1)\n                    : (reserve1, reserve0);\n                amountInput = IBEP20(input).balanceOf(address(pair)).sub(reserveInput);\n                amountOutput = BakerySwapLibrary.getAmountOut(amountInput, reserveInput, reserveOutput);\n            }\n            (uint256 amount0Out, uint256 amount1Out) = input == token0\n                ? (uint256(0), amountOutput)\n                : (amountOutput, uint256(0));\n            address to = i < path.length - 2 ? BakerySwapLibrary.pairFor(factory, output, path[i + 2]) : _to;\n            pair.swap(amount0Out, amount1Out, to);\n        }\n    }\n\n    function swapExactTokensForTokensSupportingFeeOnTransferTokens(\n        uint256 amountIn,\n        uint256 amountOutMin,\n        address[] calldata path,\n        address to,\n        uint256 deadline\n    ) external virtual override ensure(deadline) {\n        TransferHelper.safeTransferFrom(\n            path[0],\n            msg.sender,\n            BakerySwapLibrary.pairFor(factory, path[0], path[1]),\n            amountIn\n        );\n        uint256 balanceBefore = IBEP20(path[path.length - 1]).balanceOf(to);\n        _swapSupportingFeeOnTransferTokens(path, to);\n        require(\n            IBEP20(path[path.length - 1]).balanceOf(to).sub(balanceBefore) >= amountOutMin,\n            'BakerySwapRouter: INSUFFICIENT_OUTPUT_AMOUNT'\n        );\n    }\n\n    function swapExactBNBForTokensSupportingFeeOnTransferTokens(\n        uint256 amountOutMin,\n        address[] calldata path,\n        address to,\n        uint256 deadline\n    ) external virtual override payable ensure(deadline) {\n        require(path[0] == WBNB, 'BakerySwapRouter: INVALID_PATH');\n        uint256 amountIn = msg.value;\n        IWBNB(WBNB).deposit{value: amountIn}();\n        assert(IWBNB(WBNB).transfer(BakerySwapLibrary.pairFor(factory, path[0], path[1]), amountIn));\n        uint256 balanceBefore = IBEP20(path[path.length - 1]).balanceOf(to);\n        _swapSupportingFeeOnTransferTokens(path, to);\n        require(\n            IBEP20(path[path.length - 1]).balanceOf(to).sub(balanceBefore) >= amountOutMin,\n            'BakerySwapRouter: INSUFFICIENT_OUTPUT_AMOUNT'\n        );\n    }\n\n    function swapExactTokensForBNBSupportingFeeOnTransferTokens(\n        uint256 amountIn,\n        uint256 amountOutMin,\n        address[] calldata path,\n        address to,\n        uint256 deadline\n    ) external virtual override ensure(deadline) {\n        require(path[path.length - 1] == WBNB, 'BakerySwapRouter: INVALID_PATH');\n        TransferHelper.safeTransferFrom(\n            path[0],\n            msg.sender,\n            BakerySwapLibrary.pairFor(factory, path[0], path[1]),\n            amountIn\n        );\n        _swapSupportingFeeOnTransferTokens(path, address(this));\n        uint256 amountOut = IBEP20(WBNB).balanceOf(address(this));\n        require(amountOut >= amountOutMin, 'BakerySwapRouter: INSUFFICIENT_OUTPUT_AMOUNT');\n        IWBNB(WBNB).withdraw(amountOut);\n        TransferHelper.safeTransferBNB(to, amountOut);\n    }\n\n    // **** LIBRARY FUNCTIONS ****\n    function quote(\n        uint256 amountA,\n        uint256 reserveA,\n        uint256 reserveB\n    ) public virtual override pure returns (uint256 amountB) {\n        return BakerySwapLibrary.quote(amountA, reserveA, reserveB);\n    }\n\n    function getAmountOut(\n        uint256 amountIn,\n        uint256 reserveIn,\n        uint256 reserveOut\n    ) public virtual override pure returns (uint256 amountOut) {\n        return BakerySwapLibrary.getAmountOut(amountIn, reserveIn, reserveOut);\n    }\n\n    function getAmountIn(\n        uint256 amountOut,\n        uint256 reserveIn,\n        uint256 reserveOut\n    ) public virtual override pure returns (uint256 amountIn) {\n        return BakerySwapLibrary.getAmountIn(amountOut, reserveIn, reserveOut);\n    }\n\n    function getAmountsOut(uint256 amountIn, address[] memory path)\n        public\n        virtual\n        override\n        view\n        returns (uint256[] memory amounts)\n    {\n        return BakerySwapLibrary.getAmountsOut(factory, amountIn, path);\n    }\n\n    function getAmountsIn(uint256 amountOut, address[] memory path)\n        public\n        virtual\n        override\n        view\n        returns (uint256[] memory amounts)\n    {\n        return BakerySwapLibrary.getAmountsIn(factory, amountOut, path);\n    }\n}\n",
  "sourcePath": "/home/apoorva/Documents/projects/BlueBerrySwap/BlueBerrySwap-Periphery/contracts/BakerySwapRouter.sol",
  "compiler": {
    "name": "solc",
    "version": "0.6.6+commit.6c089d02.Emscripten.clang"
  },
  "schemaVersion": "3.4.3",
  "updatedAt": "2021-09-06T09:00:04.880Z",
  "networkType": "ethereum",
  "devdoc": {
    "methods": {}
  },
  "userdoc": {
    "methods": {}
  }
}