{
  "contractName": "RouterEventEmitter",
  "abi": [
    {
      "anonymous": false,
      "inputs": [
        {
          "indexed": false,
          "internalType": "uint256[]",
          "name": "amounts",
          "type": "uint256[]"
        }
      ],
      "name": "Amounts",
      "type": "event"
    },
    {
      "stateMutability": "payable",
      "type": "receive"
    },
    {
      "inputs": [
        {
          "internalType": "address",
          "name": "router",
          "type": "address"
        },
        {
          "internalType": "uint256",
          "name": "amountIn",
          "type": "uint256"
        },
        {
          "internalType": "uint256",
          "name": "amountOutMin",
          "type": "uint256"
        },
        {
          "internalType": "address[]",
          "name": "path",
          "type": "address[]"
        },
        {
          "internalType": "address",
          "name": "to",
          "type": "address"
        },
        {
          "internalType": "uint256",
          "name": "deadline",
          "type": "uint256"
        }
      ],
      "name": "swapExactTokensForTokens",
      "outputs": [],
      "stateMutability": "nonpayable",
      "type": "function"
    },
    {
      "inputs": [
        {
          "internalType": "address",
          "name": "router",
          "type": "address"
        },
        {
          "internalType": "uint256",
          "name": "amountOut",
          "type": "uint256"
        },
        {
          "internalType": "uint256",
          "name": "amountInMax",
          "type": "uint256"
        },
        {
          "internalType": "address[]",
          "name": "path",
          "type": "address[]"
        },
        {
          "internalType": "address",
          "name": "to",
          "type": "address"
        },
        {
          "internalType": "uint256",
          "name": "deadline",
          "type": "uint256"
        }
      ],
      "name": "swapTokensForExactTokens",
      "outputs": [],
      "stateMutability": "nonpayable",
      "type": "function"
    },
    {
      "inputs": [
        {
          "internalType": "address",
          "name": "router",
          "type": "address"
        },
        {
          "internalType": "uint256",
          "name": "amountOutMin",
          "type": "uint256"
        },
        {
          "internalType": "address[]",
          "name": "path",
          "type": "address[]"
        },
        {
          "internalType": "address",
          "name": "to",
          "type": "address"
        },
        {
          "internalType": "uint256",
          "name": "deadline",
          "type": "uint256"
        }
      ],
      "name": "swapExactBNBForTokens",
      "outputs": [],
      "stateMutability": "payable",
      "type": "function"
    },
    {
      "inputs": [
        {
          "internalType": "address",
          "name": "router",
          "type": "address"
        },
        {
          "internalType": "uint256",
          "name": "amountOut",
          "type": "uint256"
        },
        {
          "internalType": "uint256",
          "name": "amountInMax",
          "type": "uint256"
        },
        {
          "internalType": "address[]",
          "name": "path",
          "type": "address[]"
        },
        {
          "internalType": "address",
          "name": "to",
          "type": "address"
        },
        {
          "internalType": "uint256",
          "name": "deadline",
          "type": "uint256"
        }
      ],
      "name": "swapTokensForExactBNB",
      "outputs": [],
      "stateMutability": "nonpayable",
      "type": "function"
    },
    {
      "inputs": [
        {
          "internalType": "address",
          "name": "router",
          "type": "address"
        },
        {
          "internalType": "uint256",
          "name": "amountIn",
          "type": "uint256"
        },
        {
          "internalType": "uint256",
          "name": "amountOutMin",
          "type": "uint256"
        },
        {
          "internalType": "address[]",
          "name": "path",
          "type": "address[]"
        },
        {
          "internalType": "address",
          "name": "to",
          "type": "address"
        },
        {
          "internalType": "uint256",
          "name": "deadline",
          "type": "uint256"
        }
      ],
      "name": "swapExactTokensForBNB",
      "outputs": [],
      "stateMutability": "nonpayable",
      "type": "function"
    },
    {
      "inputs": [
        {
          "internalType": "address",
          "name": "router",
          "type": "address"
        },
        {
          "internalType": "uint256",
          "name": "amountOut",
          "type": "uint256"
        },
        {
          "internalType": "address[]",
          "name": "path",
          "type": "address[]"
        },
        {
          "internalType": "address",
          "name": "to",
          "type": "address"
        },
        {
          "internalType": "uint256",
          "name": "deadline",
          "type": "uint256"
        }
      ],
      "name": "swapBNBForExactTokens",
      "outputs": [],
      "stateMutability": "payable",
      "type": "function"
    }
  ],
  "bytecode": "0x608060405234801561001057600080fd5b50610cd6806100206000396000f3fe6080604052600436106100595760003560e01c806322b5841014610065578063375734d91461010d57806366dc44da146101b357806384a0dcbf14610259578063d562e06a146102eb578063f443115b1461037d57610060565b3661006057005b600080fd5b34801561007157600080fd5b5061010b600480360360c081101561008857600080fd5b6001600160a01b038235169160208101359160408201359190810190608081016060820135600160201b8111156100be57600080fd5b8201836020820111156100d057600080fd5b803590602001918460208302840111600160201b831117156100f157600080fd5b91935091506001600160a01b038135169060200135610423565b005b34801561011957600080fd5b5061010b600480360360c081101561013057600080fd5b6001600160a01b038235169160208101359160408201359190810190608081016060820135600160201b81111561016657600080fd5b82018360208201111561017857600080fd5b803590602001918460208302840111600160201b8311171561019957600080fd5b91935091506001600160a01b03813516906020013561068a565b3480156101bf57600080fd5b5061010b600480360360c08110156101d657600080fd5b6001600160a01b038235169160208101359160408201359190810190608081016060820135600160201b81111561020c57600080fd5b82018360208201111561021e57600080fd5b803590602001918460208302840111600160201b8311171561023f57600080fd5b91935091506001600160a01b038135169060200135610773565b61010b600480360360a081101561026f57600080fd5b6001600160a01b0382351691602081013591810190606081016040820135600160201b81111561029e57600080fd5b8201836020820111156102b057600080fd5b803590602001918460208302840111600160201b831117156102d157600080fd5b91935091506001600160a01b03813516906020013561085c565b61010b600480360360a081101561030157600080fd5b6001600160a01b0382351691602081013591810190606081016040820135600160201b81111561033057600080fd5b82018360208201111561034257600080fd5b803590602001918460208302840111600160201b8311171561036357600080fd5b91935091506001600160a01b038135169060200135610aba565b34801561038957600080fd5b5061010b600480360360c08110156103a057600080fd5b6001600160a01b038235169160208101359160408201359190810190608081016060820135600160201b8111156103d657600080fd5b8201836020820111156103e857600080fd5b803590602001918460208302840111600160201b8311171561040957600080fd5b91935091506001600160a01b038135169060200135610b97565b60006060886001600160a01b0316638803dbee60e01b8989898989896040516024018087815260200186815260200180602001846001600160a01b03166001600160a01b031681526020018381526020018281038252868682818152602001925060200280828437600081840152601f19601f820116905080830192505050975050505050505050604051602081830303815290604052906001600160e01b0319166020820180516001600160e01b0383818316178352505050506040518082805190602001908083835b6020831061050d5780518252601f1990920191602091820191016104ee565b6001836020036101000a038019825116818451168082178552505050505050905001915050600060405180830381855af49150503d806000811461056d576040519150601f19603f3d011682016040523d82523d6000602084013e610572565b606091505b50915091508161057e57fe5b600080516020610c818339815191528180602001905160208110156105a257600080fd5b8101908080516040519392919084600160201b8211156105c157600080fd5b9083019060208201858111156105d657600080fd5b82518660208202830111600160201b821117156105f257600080fd5b82525081516020918201928201910280838360005b8381101561061f578181015183820152602001610607565b505050509050016040525050506040518080602001828103825283818151815260200191508051906020019060200280838360005b8381101561066c578181015183820152602001610654565b505050509050019250505060405180910390a1505050505050505050565b60006060886001600160a01b03166338ed173960e01b8989898989896040516024018087815260200186815260200180602001846001600160a01b03166001600160a01b031681526020018381526020018281038252868682818152602001925060200280828437600081840152601f19601f820116905080830192505050975050505050505050604051602081830303815290604052906001600160e01b0319166020820180516001600160e01b0383818316178352505050506040518082805190602001908083836020831061050d5780518252601f1990920191602091820191016104ee565b60006060886001600160a01b031663d67b571e60e01b8989898989896040516024018087815260200186815260200180602001846001600160a01b03166001600160a01b031681526020018381526020018281038252868682818152602001925060200280828437600081840152601f19601f820116905080830192505050975050505050505050604051602081830303815290604052906001600160e01b0319166020820180516001600160e01b0383818316178352505050506040518082805190602001908083836020831061050d5780518252601f1990920191602091820191016104ee565b60006060876001600160a01b0316638332a96360e01b88888888886040516024018086815260200180602001846001600160a01b03166001600160a01b031681526020018381526020018281038252868682818152602001925060200280828437600081840152601f19601f8201169050808301925050509650505050505050604051602081830303815290604052906001600160e01b0319166020820180516001600160e01b0383818316178352505050506040518082805190602001908083835b6020831061093e5780518252601f19909201916020918201910161091f565b6001836020036101000a038019825116818451168082178552505050505050905001915050600060405180830381855af49150503d806000811461099e576040519150601f19603f3d011682016040523d82523d6000602084013e6109a3565b606091505b5091509150816109af57fe5b600080516020610c818339815191528180602001905160208110156109d357600080fd5b8101908080516040519392919084600160201b8211156109f257600080fd5b908301906020820185811115610a0757600080fd5b82518660208202830111600160201b82111715610a2357600080fd5b82525081516020918201928201910280838360005b83811015610a50578181015183820152602001610a38565b505050509050016040525050506040518080602001828103825283818151815260200191508051906020019060200280838360005b83811015610a9d578181015183820152602001610a85565b505050509050019250505060405180910390a15050505050505050565b60006060876001600160a01b0316639cf6891160e01b88888888886040516024018086815260200180602001846001600160a01b03166001600160a01b03168152602001838152602001828103825286868281815260200192506020028082843760008382015260408051601f909201601f199081169094018281039094018252928352602080820180516001600160e01b03166001600160e01b0319909d169c909c178c5292518151919b909a508a99509750955085945087935086925050831061093e5780518252601f19909201916020918201910161091f565b60006060886001600160a01b0316635d616c5b60e01b8989898989896040516024018087815260200186815260200180602001846001600160a01b03166001600160a01b031681526020018381526020018281038252868682818152602001925060200280828437600081840152601f19601f820116905080830192505050975050505050505050604051602081830303815290604052906001600160e01b0319166020820180516001600160e01b0383818316178352505050506040518082805190602001908083836020831061050d5780518252601f1990920191602091820191016104ee56fe4cc17991e3610e3400e74a8306aa421daaee1e3446fa22b490604610999e10b3a26469706673582212207c1bd1dcf760a4774ccba4e1e159cf890099d68f2dea063defba8857c8a7363764736f6c63430006060033",
  "immutableReferences": {},
  "source": "pragma solidity =0.6.6;\n\nimport '../interfaces/IBakerySwapRouter.sol';\n\ncontract RouterEventEmitter {\n    event Amounts(uint256[] amounts);\n\n    receive() external payable {}\n\n    function swapExactTokensForTokens(\n        address router,\n        uint256 amountIn,\n        uint256 amountOutMin,\n        address[] calldata path,\n        address to,\n        uint256 deadline\n    ) external {\n        (bool success, bytes memory returnData) = router.delegatecall(\n            abi.encodeWithSelector(\n                IBakerySwapRouter(router).swapExactTokensForTokens.selector,\n                amountIn,\n                amountOutMin,\n                path,\n                to,\n                deadline\n            )\n        );\n        assert(success);\n        emit Amounts(abi.decode(returnData, (uint256[])));\n    }\n\n    function swapTokensForExactTokens(\n        address router,\n        uint256 amountOut,\n        uint256 amountInMax,\n        address[] calldata path,\n        address to,\n        uint256 deadline\n    ) external {\n        (bool success, bytes memory returnData) = router.delegatecall(\n            abi.encodeWithSelector(\n                IBakerySwapRouter(router).swapTokensForExactTokens.selector,\n                amountOut,\n                amountInMax,\n                path,\n                to,\n                deadline\n            )\n        );\n        assert(success);\n        emit Amounts(abi.decode(returnData, (uint256[])));\n    }\n\n    function swapExactBNBForTokens(\n        address router,\n        uint256 amountOutMin,\n        address[] calldata path,\n        address to,\n        uint256 deadline\n    ) external payable {\n        (bool success, bytes memory returnData) = router.delegatecall(\n            abi.encodeWithSelector(\n                IBakerySwapRouter(router).swapExactBNBForTokens.selector,\n                amountOutMin,\n                path,\n                to,\n                deadline\n            )\n        );\n        assert(success);\n        emit Amounts(abi.decode(returnData, (uint256[])));\n    }\n\n    function swapTokensForExactBNB(\n        address router,\n        uint256 amountOut,\n        uint256 amountInMax,\n        address[] calldata path,\n        address to,\n        uint256 deadline\n    ) external {\n        (bool success, bytes memory returnData) = router.delegatecall(\n            abi.encodeWithSelector(\n                IBakerySwapRouter(router).swapTokensForExactBNB.selector,\n                amountOut,\n                amountInMax,\n                path,\n                to,\n                deadline\n            )\n        );\n        assert(success);\n        emit Amounts(abi.decode(returnData, (uint256[])));\n    }\n\n    function swapExactTokensForBNB(\n        address router,\n        uint256 amountIn,\n        uint256 amountOutMin,\n        address[] calldata path,\n        address to,\n        uint256 deadline\n    ) external {\n        (bool success, bytes memory returnData) = router.delegatecall(\n            abi.encodeWithSelector(\n                IBakerySwapRouter(router).swapExactTokensForBNB.selector,\n                amountIn,\n                amountOutMin,\n                path,\n                to,\n                deadline\n            )\n        );\n        assert(success);\n        emit Amounts(abi.decode(returnData, (uint256[])));\n    }\n\n    function swapBNBForExactTokens(\n        address router,\n        uint256 amountOut,\n        address[] calldata path,\n        address to,\n        uint256 deadline\n    ) external payable {\n        (bool success, bytes memory returnData) = router.delegatecall(\n            abi.encodeWithSelector(\n                IBakerySwapRouter(router).swapBNBForExactTokens.selector,\n                amountOut,\n                path,\n                to,\n                deadline\n            )\n        );\n        assert(success);\n        emit Amounts(abi.decode(returnData, (uint256[])));\n    }\n}\n",
  "sourcePath": "/home/apoorva/Documents/projects/BlueBerrySwap/BlueBerrySwap-Periphery/contracts/test/RouterEventEmitter.sol",
  "compiler": {
    "name": "solc",
    "version": "0.6.6+commit.6c089d02.Emscripten.clang"
  },
  "schemaVersion": "3.4.3",
  "updatedAt": "2021-09-06T08:53:31.816Z",
  "devdoc": {
    "methods": {}
  },
  "userdoc": {
    "methods": {}
  }
}